{
  "contractName": "SupplyChainStorage",
  "abi": [
    {
      "constant": true,
      "inputs": [],
      "name": "lastAccess",
      "outputs": [
        {
          "name": "",
          "type": "address"
        }
      ],
      "payable": false,
      "stateMutability": "view",
      "type": "function"
    },
    {
      "constant": false,
      "inputs": [],
      "name": "renounceOwnership",
      "outputs": [],
      "payable": false,
      "stateMutability": "nonpayable",
      "type": "function"
    },
    {
      "constant": true,
      "inputs": [],
      "name": "owner",
      "outputs": [
        {
          "name": "",
          "type": "address"
        }
      ],
      "payable": false,
      "stateMutability": "view",
      "type": "function"
    },
    {
      "constant": false,
      "inputs": [
        {
          "name": "newOwner",
          "type": "address"
        }
      ],
      "name": "transferOwnership",
      "outputs": [],
      "payable": false,
      "stateMutability": "nonpayable",
      "type": "function"
    },
    {
      "inputs": [],
      "payable": false,
      "stateMutability": "nonpayable",
      "type": "constructor"
    },
    {
      "anonymous": false,
      "inputs": [
        {
          "indexed": false,
          "name": "caller",
          "type": "address"
        }
      ],
      "name": "AuthorizedCaller",
      "type": "event"
    },
    {
      "anonymous": false,
      "inputs": [
        {
          "indexed": false,
          "name": "caller",
          "type": "address"
        }
      ],
      "name": "DeAuthorizedCaller",
      "type": "event"
    },
    {
      "anonymous": false,
      "inputs": [
        {
          "indexed": true,
          "name": "previousOwner",
          "type": "address"
        }
      ],
      "name": "OwnershipRenounced",
      "type": "event"
    },
    {
      "anonymous": false,
      "inputs": [
        {
          "indexed": true,
          "name": "previousOwner",
          "type": "address"
        },
        {
          "indexed": true,
          "name": "newOwner",
          "type": "address"
        }
      ],
      "name": "OwnershipTransferred",
      "type": "event"
    },
    {
      "constant": false,
      "inputs": [
        {
          "name": "_caller",
          "type": "address"
        }
      ],
      "name": "authorizeCaller",
      "outputs": [
        {
          "name": "",
          "type": "bool"
        }
      ],
      "payable": false,
      "stateMutability": "nonpayable",
      "type": "function"
    },
    {
      "constant": false,
      "inputs": [
        {
          "name": "_caller",
          "type": "address"
        }
      ],
      "name": "deAuthorizeCaller",
      "outputs": [
        {
          "name": "",
          "type": "bool"
        }
      ],
      "payable": false,
      "stateMutability": "nonpayable",
      "type": "function"
    },
    {
      "constant": true,
      "inputs": [
        {
          "name": "_userAddress",
          "type": "address"
        }
      ],
      "name": "getUserRole",
      "outputs": [
        {
          "name": "",
          "type": "string"
        }
      ],
      "payable": false,
      "stateMutability": "view",
      "type": "function"
    },
    {
      "constant": true,
      "inputs": [
        {
          "name": "_batchNo",
          "type": "address"
        }
      ],
      "name": "getNextAction",
      "outputs": [
        {
          "name": "",
          "type": "string"
        }
      ],
      "payable": false,
      "stateMutability": "view",
      "type": "function"
    },
    {
      "constant": false,
      "inputs": [
        {
          "name": "_userAddress",
          "type": "address"
        },
        {
          "name": "_name",
          "type": "string"
        },
        {
          "name": "_contactNo",
          "type": "string"
        },
        {
          "name": "_role",
          "type": "string"
        },
        {
          "name": "_isActive",
          "type": "bool"
        },
        {
          "name": "_profileHash",
          "type": "string"
        }
      ],
      "name": "setUser",
      "outputs": [
        {
          "name": "",
          "type": "bool"
        }
      ],
      "payable": false,
      "stateMutability": "nonpayable",
      "type": "function"
    },
    {
      "constant": true,
      "inputs": [
        {
          "name": "_userAddress",
          "type": "address"
        }
      ],
      "name": "getUser",
      "outputs": [
        {
          "name": "name",
          "type": "string"
        },
        {
          "name": "contactNo",
          "type": "string"
        },
        {
          "name": "role",
          "type": "string"
        },
        {
          "name": "isActive",
          "type": "bool"
        },
        {
          "name": "profileHash",
          "type": "string"
        }
      ],
      "payable": false,
      "stateMutability": "view",
      "type": "function"
    },
    {
      "constant": true,
      "inputs": [
        {
          "name": "_batchNo",
          "type": "address"
        }
      ],
      "name": "getBasicDetails",
      "outputs": [
        {
          "name": "batchDescription",
          "type": "string"
        },
        {
          "name": "quantity",
          "type": "uint256"
        },
        {
          "name": "supplierAddress",
          "type": "string"
        },
        {
          "name": "manufacturerAddress",
          "type": "string"
        },
        {
          "name": "wholesalerAddress",
          "type": "string"
        },
        {
          "name": "distributerAddress",
          "type": "string"
        }
      ],
      "payable": false,
      "stateMutability": "view",
      "type": "function"
    },
    {
      "constant": false,
      "inputs": [
        {
          "name": "_batchDescription",
          "type": "string"
        },
        {
          "name": "_quantity",
          "type": "uint256"
        },
        {
          "name": "_supplierAddress",
          "type": "string"
        },
        {
          "name": "_manufacturerAddress",
          "type": "string"
        },
        {
          "name": "_wholesalerAddress",
          "type": "string"
        },
        {
          "name": "_distributerAddress",
          "type": "string"
        }
      ],
      "name": "setBasicDetails",
      "outputs": [
        {
          "name": "",
          "type": "address"
        }
      ],
      "payable": false,
      "stateMutability": "nonpayable",
      "type": "function"
    },
    {
      "constant": false,
      "inputs": [
        {
          "name": "batchNo",
          "type": "address"
        },
        {
          "name": "_rawMaterials",
          "type": "string"
        },
        {
          "name": "_description",
          "type": "string"
        },
        {
          "name": "_quantity",
          "type": "uint256"
        },
        {
          "name": "_shipperName",
          "type": "string"
        },
        {
          "name": "_recieverAddress",
          "type": "string"
        },
        {
          "name": "_receiverName",
          "type": "string"
        },
        {
          "name": "_cost",
          "type": "uint256"
        }
      ],
      "name": "setSupplierData",
      "outputs": [
        {
          "name": "",
          "type": "bool"
        }
      ],
      "payable": false,
      "stateMutability": "nonpayable",
      "type": "function"
    },
    {
      "constant": true,
      "inputs": [
        {
          "name": "batchNo",
          "type": "address"
        }
      ],
      "name": "getSupplierData",
      "outputs": [
        {
          "name": "rawMaterials",
          "type": "string"
        },
        {
          "name": "description",
          "type": "string"
        },
        {
          "name": "quantity",
          "type": "uint256"
        },
        {
          "name": "shipperName",
          "type": "string"
        },
        {
          "name": "recieverAddress",
          "type": "string"
        },
        {
          "name": "receiverName",
          "type": "string"
        },
        {
          "name": "dispatchDateTime",
          "type": "uint256"
        },
        {
          "name": "cost",
          "type": "uint256"
        }
      ],
      "payable": false,
      "stateMutability": "view",
      "type": "function"
    },
    {
      "constant": false,
      "inputs": [
        {
          "name": "batchNo",
          "type": "address"
        },
        {
          "name": "_description",
          "type": "string"
        },
        {
          "name": "_quantity",
          "type": "uint256"
        },
        {
          "name": "_shipperName",
          "type": "string"
        },
        {
          "name": "_recieverAddress",
          "type": "string"
        },
        {
          "name": "_receiverName",
          "type": "string"
        },
        {
          "name": "_cost",
          "type": "uint256"
        }
      ],
      "name": "setManufacturerData",
      "outputs": [
        {
          "name": "",
          "type": "bool"
        }
      ],
      "payable": false,
      "stateMutability": "nonpayable",
      "type": "function"
    },
    {
      "constant": true,
      "inputs": [
        {
          "name": "batchNo",
          "type": "address"
        }
      ],
      "name": "getManufacturerData",
      "outputs": [
        {
          "name": "description",
          "type": "string"
        },
        {
          "name": "quantity",
          "type": "uint256"
        },
        {
          "name": "shipperName",
          "type": "string"
        },
        {
          "name": "recieverAddress",
          "type": "string"
        },
        {
          "name": "receiverName",
          "type": "string"
        },
        {
          "name": "dispatchDateTime",
          "type": "uint256"
        },
        {
          "name": "cost",
          "type": "uint256"
        }
      ],
      "payable": false,
      "stateMutability": "view",
      "type": "function"
    },
    {
      "constant": false,
      "inputs": [
        {
          "name": "batchNo",
          "type": "address"
        },
        {
          "name": "_description",
          "type": "string"
        },
        {
          "name": "_quantity",
          "type": "uint256"
        },
        {
          "name": "_receivedDateTime",
          "type": "uint256"
        },
        {
          "name": "_shipperName",
          "type": "string"
        },
        {
          "name": "_recieverAddress",
          "type": "string"
        },
        {
          "name": "_receiverName",
          "type": "string"
        },
        {
          "name": "_cost",
          "type": "uint256"
        }
      ],
      "name": "setWholesalerData",
      "outputs": [
        {
          "name": "",
          "type": "bool"
        }
      ],
      "payable": false,
      "stateMutability": "nonpayable",
      "type": "function"
    },
    {
      "constant": true,
      "inputs": [
        {
          "name": "batchNo",
          "type": "address"
        }
      ],
      "name": "getWholesalerData",
      "outputs": [
        {
          "name": "description",
          "type": "string"
        },
        {
          "name": "quantity",
          "type": "uint256"
        },
        {
          "name": "receivedDateTime",
          "type": "uint256"
        },
        {
          "name": "shipperName",
          "type": "string"
        },
        {
          "name": "recieverAddress",
          "type": "string"
        },
        {
          "name": "receiverName",
          "type": "string"
        },
        {
          "name": "dispatchDateTime",
          "type": "uint256"
        },
        {
          "name": "cost",
          "type": "uint256"
        }
      ],
      "payable": false,
      "stateMutability": "view",
      "type": "function"
    },
    {
      "constant": false,
      "inputs": [
        {
          "name": "batchNo",
          "type": "address"
        },
        {
          "name": "_description",
          "type": "string"
        },
        {
          "name": "_quantity",
          "type": "uint256"
        },
        {
          "name": "_receivedDateTime",
          "type": "uint256"
        },
        {
          "name": "_shipperName",
          "type": "string"
        },
        {
          "name": "_recieverAddress",
          "type": "string"
        },
        {
          "name": "_receiverName",
          "type": "string"
        },
        {
          "name": "_cost",
          "type": "uint256"
        }
      ],
      "name": "setDistributerData",
      "outputs": [
        {
          "name": "",
          "type": "bool"
        }
      ],
      "payable": false,
      "stateMutability": "nonpayable",
      "type": "function"
    },
    {
      "constant": true,
      "inputs": [
        {
          "name": "batchNo",
          "type": "address"
        }
      ],
      "name": "getDistributerData",
      "outputs": [
        {
          "name": "description",
          "type": "string"
        },
        {
          "name": "quantity",
          "type": "uint256"
        },
        {
          "name": "receivedDateTime",
          "type": "uint256"
        },
        {
          "name": "shipperName",
          "type": "string"
        },
        {
          "name": "recieverAddress",
          "type": "string"
        },
        {
          "name": "receiverName",
          "type": "string"
        },
        {
          "name": "dispatchDateTime",
          "type": "uint256"
        },
        {
          "name": "cost",
          "type": "uint256"
        }
      ],
      "payable": false,
      "stateMutability": "view",
      "type": "function"
    },
    {
      "constant": false,
      "inputs": [
        {
          "name": "batchNo",
          "type": "address"
        },
        {
          "name": "_quantityRecieved",
          "type": "uint256"
        },
        {
          "name": "_description",
          "type": "string"
        },
        {
          "name": "_arrivalDateTime",
          "type": "uint256"
        },
        {
          "name": "_cost",
          "type": "uint256"
        },
        {
          "name": "_senderAddress",
          "type": "string"
        }
      ],
      "name": "setPharmaData",
      "outputs": [
        {
          "name": "",
          "type": "bool"
        }
      ],
      "payable": false,
      "stateMutability": "nonpayable",
      "type": "function"
    },
    {
      "constant": true,
      "inputs": [
        {
          "name": "batchNo",
          "type": "address"
        }
      ],
      "name": "getPharmaData",
      "outputs": [
        {
          "name": "quantityRecieved",
          "type": "uint256"
        },
        {
          "name": "description",
          "type": "string"
        },
        {
          "name": "arrivalDateTime",
          "type": "uint256"
        },
        {
          "name": "cost",
          "type": "uint256"
        },
        {
          "name": "senderAddress",
          "type": "string"
        }
      ],
      "payable": false,
      "stateMutability": "view",
      "type": "function"
    }
  ],
  "bytecode": "0x608060405234801561001057600080fd5b50336000806101000a81548173ffffffffffffffffffffffffffffffffffffffff021916908373ffffffffffffffffffffffffffffffffffffffff1602179055506001600460003373ffffffffffffffffffffffffffffffffffffffff1673ffffffffffffffffffffffffffffffffffffffff16815260200190815260200160002060006101000a81548160ff021916908360ff1602179055507f8afeca650897be3183b7c0d24eba96a1b990f75c4bd74a0cfb2c0a71aec48e6133604051808273ffffffffffffffffffffffffffffffffffffffff1673ffffffffffffffffffffffffffffffffffffffff16815260200191505060405180910390a1615776806200011d6000396000f300608060405260043610610128576000357c0100000000000000000000000000000000000000000000000000000000900463ffffffff1680631bcd250a1461012d5780631e92f5fc1461018857806327820851146103a45780632c388d5d146104605780633480898b146104bb57806335057b6b146105125780634d6b5e00146107275780635b9ffad8146107e35780636f77926b146109ae578063715018a614610bb95780638c32705614610bd05780638da5cb5b14610cd5578063939dd25314610d2c578063b72f17e714610ebd578063b7a08836146110d9578063bd418a9d14611216578063d7d0eb87146113a7578063e059305114611628578063f2997d76146117af578063f2fde38b14611a22578063f831a8c214611a65578063fb7a20af14611c32575b600080fd5b34801561013957600080fd5b5061016e600480360381019080803573ffffffffffffffffffffffffffffffffffffffff169060200190929190505050611db1565b604051808215151515815260200191505060405180910390f35b34801561019457600080fd5b506101c9600480360381019080803573ffffffffffffffffffffffffffffffffffffffff169060200190929190505050611ed3565b604051808060200189815260200188815260200180602001806020018060200187815260200186815260200185810385528d818151815260200191508051906020019080838360005b8381101561022d578082015181840152602081019050610212565b50505050905090810190601f16801561025a5780820380516001836020036101000a031916815260200191505b5085810384528a818151815260200191508051906020019080838360005b83811015610293578082015181840152602081019050610278565b50505050905090810190601f1680156102c05780820380516001836020036101000a031916815260200191505b50858103835289818151815260200191508051906020019080838360005b838110156102f95780820151818401526020810190506102de565b50505050905090810190601f1680156103265780820380516001836020036101000a031916815260200191505b50858103825288818151815260200191508051906020019080838360005b8381101561035f578082015181840152602081019050610344565b50505050905090810190601f16801561038c5780820380516001836020036101000a031916815260200191505b509c5050505050505050505050505060405180910390f35b3480156103b057600080fd5b506103e5600480360381019080803573ffffffffffffffffffffffffffffffffffffffff1690602001909291905050506122d5565b6040518080602001828103825283818151815260200191508051906020019080838360005b8381101561042557808201518184015260208101905061040a565b50505050905090810190601f1680156104525780820380516001836020036101000a031916815260200191505b509250505060405180910390f35b34801561046c57600080fd5b506104a1600480360381019080803573ffffffffffffffffffffffffffffffffffffffff169060200190929190505050612455565b604051808215151515815260200191505060405180910390f35b3480156104c757600080fd5b506104d0612577565b604051808273ffffffffffffffffffffffffffffffffffffffff1673ffffffffffffffffffffffffffffffffffffffff16815260200191505060405180910390f35b34801561051e57600080fd5b50610553600480360381019080803573ffffffffffffffffffffffffffffffffffffffff16906020019092919050505061259d565b604051808060200188815260200180602001806020018060200187815260200186815260200185810385528c818151815260200191508051906020019080838360005b838110156105b1578082015181840152602081019050610596565b50505050905090810190601f1680156105de5780820380516001836020036101000a031916815260200191505b5085810384528a818151815260200191508051906020019080838360005b838110156106175780820151818401526020810190506105fc565b50505050905090810190601f1680156106445780820380516001836020036101000a031916815260200191505b50858103835289818151815260200191508051906020019080838360005b8381101561067d578082015181840152602081019050610662565b50505050905090810190601f1680156106aa5780820380516001836020036101000a031916815260200191505b50858103825288818151815260200191508051906020019080838360005b838110156106e35780820151818401526020810190506106c8565b50505050905090810190601f1680156107105780820380516001836020036101000a031916815260200191505b509b50505050505050505050505060405180910390f35b34801561073357600080fd5b50610768600480360381019080803573ffffffffffffffffffffffffffffffffffffffff16906020019092919050505061298c565b6040518080602001828103825283818151815260200191508051906020019080838360005b838110156107a857808201518184015260208101905061078d565b50505050905090810190601f1680156107d55780820380516001836020036101000a031916815260200191505b509250505060405180910390f35b3480156107ef57600080fd5b5061096c600480360381019080803590602001908201803590602001908080601f016020809104026020016040519081016040528093929190818152602001838380828437820191505050505050919291929080359060200190929190803590602001908201803590602001908080601f0160208091040260200160405190810160405280939291908181526020018383808284378201915050505050509192919290803590602001908201803590602001908080601f0160208091040260200160405190810160405280939291908181526020018383808284378201915050505050509192919290803590602001908201803590602001908080601f0160208091040260200160405190810160405280939291908181526020018383808284378201915050505050509192919290803590602001908201803590602001908080601f0160208091040260200160405190810160405280939291908181526020018383808284378201915050505050509192919290505050612b0c565b604051808273ffffffffffffffffffffffffffffffffffffffff1673ffffffffffffffffffffffffffffffffffffffff16815260200191505060405180910390f35b3480156109ba57600080fd5b506109ef600480360381019080803573ffffffffffffffffffffffffffffffffffffffff169060200190929190505050612e4c565b60405180806020018060200180602001861515151581526020018060200185810385528a818151815260200191508051906020019080838360005b83811015610a45578082015181840152602081019050610a2a565b50505050905090810190601f168015610a725780820380516001836020036101000a031916815260200191505b50858103845289818151815260200191508051906020019080838360005b83811015610aab578082015181840152602081019050610a90565b50505050905090810190601f168015610ad85780820380516001836020036101000a031916815260200191505b50858103835288818151815260200191508051906020019080838360005b83811015610b11578082015181840152602081019050610af6565b50505050905090810190601f168015610b3e5780820380516001836020036101000a031916815260200191505b50858103825286818151815260200191508051906020019080838360005b83811015610b77578082015181840152602081019050610b5c565b50505050905090810190601f168015610ba45780820380516001836020036101000a031916815260200191505b50995050505050505050505060405180910390f35b348015610bc557600080fd5b50610bce613256565b005b348015610bdc57600080fd5b50610cbb600480360381019080803573ffffffffffffffffffffffffffffffffffffffff16906020019092919080359060200190929190803590602001908201803590602001908080601f01602080910402602001604051908101604052809392919081815260200183838082843782019150505050505091929192908035906020019092919080359060200190929190803590602001908201803590602001908080601f0160208091040260200160405190810160405280939291908181526020018383808284378201915050505050509192919290505050613358565b604051808215151515815260200191505060405180910390f35b348015610ce157600080fd5b50610cea613594565b604051808273ffffffffffffffffffffffffffffffffffffffff1673ffffffffffffffffffffffffffffffffffffffff16815260200191505060405180910390f35b348015610d3857600080fd5b50610ea3600480360381019080803573ffffffffffffffffffffffffffffffffffffffff169060200190929190803590602001908201803590602001908080601f01602080910402602001604051908101604052809392919081815260200183838082843782019150505050505091929192908035906020019092919080359060200190929190803590602001908201803590602001908080601f0160208091040260200160405190810160405280939291908181526020018383808284378201915050505050509192919290803590602001908201803590602001908080601f0160208091040260200160405190810160405280939291908181526020018383808284378201915050505050509192919290803590602001908201803590602001908080601f0160208091040260200160405190810160405280939291908181526020018383808284378201915050505050509192919290803590602001909291905050506135b9565b604051808215151515815260200191505060405180910390f35b348015610ec957600080fd5b50610efe600480360381019080803573ffffffffffffffffffffffffffffffffffffffff16906020019092919050505061388f565b604051808060200189815260200188815260200180602001806020018060200187815260200186815260200185810385528d818151815260200191508051906020019080838360005b83811015610f62578082015181840152602081019050610f47565b50505050905090810190601f168015610f8f5780820380516001836020036101000a031916815260200191505b5085810384528a818151815260200191508051906020019080838360005b83811015610fc8578082015181840152602081019050610fad565b50505050905090810190601f168015610ff55780820380516001836020036101000a031916815260200191505b50858103835289818151815260200191508051906020019080838360005b8381101561102e578082015181840152602081019050611013565b50505050905090810190601f16801561105b5780820380516001836020036101000a031916815260200191505b50858103825288818151815260200191508051906020019080838360005b83811015611094578082015181840152602081019050611079565b50505050905090810190601f1680156110c15780820380516001836020036101000a031916815260200191505b509c5050505050505050505050505060405180910390f35b3480156110e557600080fd5b5061111a600480360381019080803573ffffffffffffffffffffffffffffffffffffffff169060200190929190505050613c91565b604051808681526020018060200185815260200184815260200180602001838103835287818151815260200191508051906020019080838360005b83811015611170578082015181840152602081019050611155565b50505050905090810190601f16801561119d5780820380516001836020036101000a031916815260200191505b50838103825284818151815260200191508051906020019080838360005b838110156111d65780820151818401526020810190506111bb565b50505050905090810190601f1680156112035780820380516001836020036101000a031916815260200191505b5097505050505050505060405180910390f35b34801561122257600080fd5b5061138d600480360381019080803573ffffffffffffffffffffffffffffffffffffffff169060200190929190803590602001908201803590602001908080601f01602080910402602001604051908101604052809392919081815260200183838082843782019150505050505091929192908035906020019092919080359060200190929190803590602001908201803590602001908080601f0160208091040260200160405190810160405280939291908181526020018383808284378201915050505050509192919290803590602001908201803590602001908080601f0160208091040260200160405190810160405280939291908181526020018383808284378201915050505050509192919290803590602001908201803590602001908080601f016020809104026020016040519081016040528093929190818152602001838380828437820191505050505050919291929080359060200190929190505050613f23565b604051808215151515815260200191505060405180910390f35b3480156113b357600080fd5b506113e8600480360381019080803573ffffffffffffffffffffffffffffffffffffffff1690602001909291905050506141f9565b60405180806020018060200189815260200180602001806020018060200188815260200187815260200186810386528e818151815260200191508051906020019080838360005b8381101561144a57808201518184015260208101905061142f565b50505050905090810190601f1680156114775780820380516001836020036101000a031916815260200191505b5086810385528d818151815260200191508051906020019080838360005b838110156114b0578082015181840152602081019050611495565b50505050905090810190601f1680156114dd5780820380516001836020036101000a031916815260200191505b5086810384528b818151815260200191508051906020019080838360005b838110156115165780820151818401526020810190506114fb565b50505050905090810190601f1680156115435780820380516001836020036101000a031916815260200191505b5086810383528a818151815260200191508051906020019080838360005b8381101561157c578082015181840152602081019050611561565b50505050905090810190601f1680156115a95780820380516001836020036101000a031916815260200191505b50868103825289818151815260200191508051906020019080838360005b838110156115e25780820151818401526020810190506115c7565b50505050905090810190601f16801561160f5780820380516001836020036101000a031916815260200191505b509d505050505050505050505050505060405180910390f35b34801561163457600080fd5b50611795600480360381019080803573ffffffffffffffffffffffffffffffffffffffff169060200190929190803590602001908201803590602001908080601f016020809104026020016040519081016040528093929190818152602001838380828437820191505050505050919291929080359060200190929190803590602001908201803590602001908080601f0160208091040260200160405190810160405280939291908181526020018383808284378201915050505050509192919290803590602001908201803590602001908080601f0160208091040260200160405190810160405280939291908181526020018383808284378201915050505050509192919290803590602001908201803590602001908080601f016020809104026020016040519081016040528093929190818152602001838380828437820191505050505050919291929080359060200190929190505050614696565b604051808215151515815260200191505060405180910390f35b3480156117bb57600080fd5b506117f0600480360381019080803573ffffffffffffffffffffffffffffffffffffffff169060200190929190505050614957565b60405180806020018781526020018060200180602001806020018060200186810386528c818151815260200191508051906020019080838360005b8381101561184657808201518184015260208101905061182b565b50505050905090810190601f1680156118735780820380516001836020036101000a031916815260200191505b5086810385528a818151815260200191508051906020019080838360005b838110156118ac578082015181840152602081019050611891565b50505050905090810190601f1680156118d95780820380516001836020036101000a031916815260200191505b50868103845289818151815260200191508051906020019080838360005b838110156119125780820151818401526020810190506118f7565b50505050905090810190601f16801561193f5780820380516001836020036101000a031916815260200191505b50868103835288818151815260200191508051906020019080838360005b8381101561197857808201518184015260208101905061195d565b50505050905090810190601f1680156119a55780820380516001836020036101000a031916815260200191505b50868103825287818151815260200191508051906020019080838360005b838110156119de5780820151818401526020810190506119c3565b50505050905090810190601f168015611a0b5780820380516001836020036101000a031916815260200191505b509b50505050505050505050505060405180910390f35b348015611a2e57600080fd5b50611a63600480360381019080803573ffffffffffffffffffffffffffffffffffffffff169060200190929190505050614dcc565b005b348015611a7157600080fd5b50611c18600480360381019080803573ffffffffffffffffffffffffffffffffffffffff169060200190929190803590602001908201803590602001908080601f0160208091040260200160405190810160405280939291908181526020018383808284378201915050505050509192919290803590602001908201803590602001908080601f016020809104026020016040519081016040528093929190818152602001838380828437820191505050505050919291929080359060200190929190803590602001908201803590602001908080601f0160208091040260200160405190810160405280939291908181526020018383808284378201915050505050509192919290803590602001908201803590602001908080601f0160208091040260200160405190810160405280939291908181526020018383808284378201915050505050509192919290803590602001908201803590602001908080601f016020809104026020016040519081016040528093929190818152602001838380828437820191505050505050919291929080359060200190929190505050614f21565b604051808215151515815260200191505060405180910390f35b348015611c3e57600080fd5b50611d97600480360381019080803573ffffffffffffffffffffffffffffffffffffffff169060200190929190803590602001908201803590602001908080601f0160208091040260200160405190810160405280939291908181526020018383808284378201915050505050509192919290803590602001908201803590602001908080601f0160208091040260200160405190810160405280939291908181526020018383808284378201915050505050509192919290803590602001908201803590602001908080601f0160208091040260200160405190810160405280939291908181526020018383808284378201915050505050509192919290803515159060200190929190803590602001908201803590602001908080601f0160208091040260200160405190810160405280939291908181526020018383808284378201915050505050509192919290505050615225565b604051808215151515815260200191505060405180910390f35b60008060009054906101000a900473ffffffffffffffffffffffffffffffffffffffff1673ffffffffffffffffffffffffffffffffffffffff163373ffffffffffffffffffffffffffffffffffffffff16141515611e0e57600080fd5b6000600460008473ffffffffffffffffffffffffffffffffffffffff1673ffffffffffffffffffffffffffffffffffffffff16815260200190815260200160002060006101000a81548160ff021916908360ff1602179055507f9e8ca6ff03906e81e8a6a03d4f96b7edb0b97f0ed9d07ef1b699fff63438549682604051808273ffffffffffffffffffffffffffffffffffffffff1673ffffffffffffffffffffffffffffffffffffffff16815260200191505060405180910390a160019050919050565b60606000806060806060600080611ee861547c565b33600160006101000a81548173ffffffffffffffffffffffffffffffffffffffff021916908373ffffffffffffffffffffffffffffffffffffffff1602179055506001600460003373ffffffffffffffffffffffffffffffffffffffff1673ffffffffffffffffffffffffffffffffffffffff16815260200190815260200160002060009054906101000a900460ff1660ff16141515611f8757600080fd5b600860008b73ffffffffffffffffffffffffffffffffffffffff1673ffffffffffffffffffffffffffffffffffffffff1681526020019081526020016000206101006040519081016040529081600082018054600181600116156101000203166002900480601f01602080910402602001604051908101604052809291908181526020018280546001816001161561010002031660029004801561206c5780601f106120415761010080835404028352916020019161206c565b820191906000526020600020905b81548152906001019060200180831161204f57829003601f168201915b505050505081526020016001820154815260200160028201548152602001600382018054600181600116156101000203166002900480601f0160208091040260200160405190810160405280929190818152602001828054600181600116156101000203166002900480156121225780601f106120f757610100808354040283529160200191612122565b820191906000526020600020905b81548152906001019060200180831161210557829003601f168201915b50505050508152602001600482018054600181600116156101000203166002900480601f0160208091040260200160405190810160405280929190818152602001828054600181600116156101000203166002900480156121c45780601f10612199576101008083540402835291602001916121c4565b820191906000526020600020905b8154815290600101906020018083116121a757829003601f168201915b50505050508152602001600582018054600181600116156101000203166002900480601f0160208091040260200160405190810160405280929190818152602001828054600181600116156101000203166002900480156122665780601f1061223b57610100808354040283529160200191612266565b820191906000526020600020905b81548152906001019060200180831161224957829003601f168201915b50505050508152602001600682015481526020016007820154815250509050806000015181602001518260400151836060015184608001518560a001518660c001518760e001518797508494508393508292509850985098509850985098509850985050919395975091939597565b606033600160006101000a81548173ffffffffffffffffffffffffffffffffffffffff021916908373ffffffffffffffffffffffffffffffffffffffff1602179055506001600460003373ffffffffffffffffffffffffffffffffffffffff1673ffffffffffffffffffffffffffffffffffffffff16815260200190815260200160002060009054906101000a900460ff1660ff1614151561237657600080fd5b600360008373ffffffffffffffffffffffffffffffffffffffff1673ffffffffffffffffffffffffffffffffffffffff1681526020019081526020016000208054600181600116156101000203166002900480601f0160208091040260200160405190810160405280929190818152602001828054600181600116156101000203166002900480156124495780601f1061241e57610100808354040283529160200191612449565b820191906000526020600020905b81548152906001019060200180831161242c57829003601f168201915b50505050509050919050565b60008060009054906101000a900473ffffffffffffffffffffffffffffffffffffffff1673ffffffffffffffffffffffffffffffffffffffff163373ffffffffffffffffffffffffffffffffffffffff161415156124b257600080fd5b6001600460008473ffffffffffffffffffffffffffffffffffffffff1673ffffffffffffffffffffffffffffffffffffffff16815260200190815260200160002060006101000a81548160ff021916908360ff1602179055507f8afeca650897be3183b7c0d24eba96a1b990f75c4bd74a0cfb2c0a71aec48e6182604051808273ffffffffffffffffffffffffffffffffffffffff1673ffffffffffffffffffffffffffffffffffffffff16815260200191505060405180910390a160019050919050565b600160009054906101000a900473ffffffffffffffffffffffffffffffffffffffff1681565b6060600060608060606000806125b16154c2565b33600160006101000a81548173ffffffffffffffffffffffffffffffffffffffff021916908373ffffffffffffffffffffffffffffffffffffffff1602179055506001600460003373ffffffffffffffffffffffffffffffffffffffff1673ffffffffffffffffffffffffffffffffffffffff16815260200190815260200160002060009054906101000a900460ff1660ff1614151561265057600080fd5b600760008a73ffffffffffffffffffffffffffffffffffffffff1673ffffffffffffffffffffffffffffffffffffffff16815260200190815260200160002060e06040519081016040529081600082018054600181600116156101000203166002900480601f0160208091040260200160405190810160405280929190818152602001828054600181600116156101000203166002900480156127345780601f1061270957610100808354040283529160200191612734565b820191906000526020600020905b81548152906001019060200180831161271757829003601f168201915b5050505050815260200160018201548152602001600282018054600181600116156101000203166002900480601f0160208091040260200160405190810160405280929190818152602001828054600181600116156101000203166002900480156127e05780601f106127b5576101008083540402835291602001916127e0565b820191906000526020600020905b8154815290600101906020018083116127c357829003601f168201915b50505050508152602001600382018054600181600116156101000203166002900480601f0160208091040260200160405190810160405280929190818152602001828054600181600116156101000203166002900480156128825780601f1061285757610100808354040283529160200191612882565b820191906000526020600020905b81548152906001019060200180831161286557829003601f168201915b50505050508152602001600482018054600181600116156101000203166002900480601f0160208091040260200160405190810160405280929190818152602001828054600181600116156101000203166002900480156129245780601f106128f957610100808354040283529160200191612924565b820191906000526020600020905b81548152906001019060200180831161290757829003601f168201915b50505050508152602001600582015481526020016006820154815250509050806000015181602001518260400151836060015184608001518560a001518660c00151869650849450839350829250975097509750975097509750975050919395979092949650565b606033600160006101000a81548173ffffffffffffffffffffffffffffffffffffffff021916908373ffffffffffffffffffffffffffffffffffffffff1602179055506001600460003373ffffffffffffffffffffffffffffffffffffffff1673ffffffffffffffffffffffffffffffffffffffff16815260200190815260200160002060009054906101000a900460ff1660ff16141515612a2d57600080fd5b600b60008373ffffffffffffffffffffffffffffffffffffffff1673ffffffffffffffffffffffffffffffffffffffff1681526020019081526020016000208054600181600116156101000203166002900480601f016020809104026020016040519081016040528092919081815260200182805460018160011615610100020316600290048015612b005780601f10612ad557610100808354040283529160200191612b00565b820191906000526020600020905b815481529060010190602001808311612ae357829003601f168201915b50505050509050919050565b600080600033600160006101000a81548173ffffffffffffffffffffffffffffffffffffffff021916908373ffffffffffffffffffffffffffffffffffffffff1602179055506001600460003373ffffffffffffffffffffffffffffffffffffffff1673ffffffffffffffffffffffffffffffffffffffff16815260200190815260200160002060009054906101000a900460ff1660ff16141515612bb057600080fd5b3342604051808373ffffffffffffffffffffffffffffffffffffffff1673ffffffffffffffffffffffffffffffffffffffff166c010000000000000000000000000281526014018281526020019250505060405180910390206001900491508190508860106000019080519060200190612c2b929190615500565b50876010600101819055508660106002019080519060200190612c4f929190615500565b508560106003019080519060200190612c69929190615500565b508460106004019080519060200190612c83929190615500565b508360106005019080519060200190612c9d929190615500565b506010600560008373ffffffffffffffffffffffffffffffffffffffff1673ffffffffffffffffffffffffffffffffffffffff16815260200190815260200160002060008201816000019080546001816001161561010002031660029004612d06929190615580565b506001820154816001015560028201816002019080546001816001161561010002031660029004612d38929190615580565b5060038201816003019080546001816001161561010002031660029004612d60929190615580565b5060048201816004019080546001816001161561010002031660029004612d88929190615580565b5060058201816005019080546001816001161561010002031660029004612db0929190615580565b509050506040805190810160405280600881526020017f535550504c494552000000000000000000000000000000000000000000000000815250600b60008373ffffffffffffffffffffffffffffffffffffffff1673ffffffffffffffffffffffffffffffffffffffff1681526020019081526020016000209080519060200190612e3c929190615500565b5080925050509695505050505050565b606080606060006060612e5d615607565b33600160006101000a81548173ffffffffffffffffffffffffffffffffffffffff021916908373ffffffffffffffffffffffffffffffffffffffff1602179055506001600460003373ffffffffffffffffffffffffffffffffffffffff1673ffffffffffffffffffffffffffffffffffffffff16815260200190815260200160002060009054906101000a900460ff1660ff16141515612efc57600080fd5b600260008873ffffffffffffffffffffffffffffffffffffffff1673ffffffffffffffffffffffffffffffffffffffff16815260200190815260200160002060806040519081016040529081600082018054600181600116156101000203166002900480601f016020809104026020016040519081016040528092919081815260200182805460018160011615610100020316600290048015612fe05780601f10612fb557610100808354040283529160200191612fe0565b820191906000526020600020905b815481529060010190602001808311612fc357829003601f168201915b50505050508152602001600182018054600181600116156101000203166002900480601f0160208091040260200160405190810160405280929190818152602001828054600181600116156101000203166002900480156130825780601f1061305757610100808354040283529160200191613082565b820191906000526020600020905b81548152906001019060200180831161306557829003601f168201915b505050505081526020016002820160009054906101000a900460ff16151515158152602001600382018054600181600116156101000203166002900480601f01602080910402602001604051908101604052809291908181526020018280546001816001161561010002031660029004801561313f5780601f106131145761010080835404028352916020019161313f565b820191906000526020600020905b81548152906001019060200180831161312257829003601f168201915b505050505081525050905080600001518160200151600360008a73ffffffffffffffffffffffffffffffffffffffff1673ffffffffffffffffffffffffffffffffffffffff16815260200190815260200160002083604001518460600151849450839350828054600181600116156101000203166002900480601f0160208091040260200160405190810160405280929190818152602001828054600181600116156101000203166002900480156132385780601f1061320d57610100808354040283529160200191613238565b820191906000526020600020905b81548152906001019060200180831161321b57829003601f168201915b50505050509250809050955095509550955095505091939590929450565b6000809054906101000a900473ffffffffffffffffffffffffffffffffffffffff1673ffffffffffffffffffffffffffffffffffffffff163373ffffffffffffffffffffffffffffffffffffffff161415156132b157600080fd5b6000809054906101000a900473ffffffffffffffffffffffffffffffffffffffff1673ffffffffffffffffffffffffffffffffffffffff167ff8df31144d9c2f0f6b59d69b8b98abd5459d07f2742c4df920b25aae33c6482060405160405180910390a260008060006101000a81548173ffffffffffffffffffffffffffffffffffffffff021916908373ffffffffffffffffffffffffffffffffffffffff160217905550565b600033600160006101000a81548173ffffffffffffffffffffffffffffffffffffffff021916908373ffffffffffffffffffffffffffffffffffffffff1602179055506001600460003373ffffffffffffffffffffffffffffffffffffffff1673ffffffffffffffffffffffffffffffffffffffff16815260200190815260200160002060009054906101000a900460ff1660ff161415156133f957600080fd5b85603560000181905550846035600101908051906020019061341c929190615500565b508360356002018190555082603560030181905550816035600401908051906020019061344a929190615500565b506035600a60008973ffffffffffffffffffffffffffffffffffffffff1673ffffffffffffffffffffffffffffffffffffffff16815260200190815260200160002060008201548160000155600182018160010190805460018160011615610100020316600290046134bd929190615580565b506002820154816002015560038201548160030155600482018160040190805460018160011615610100020316600290046134f9929190615580565b509050506040805190810160405280600481526020017f444f4e4500000000000000000000000000000000000000000000000000000000815250600b60008973ffffffffffffffffffffffffffffffffffffffff1673ffffffffffffffffffffffffffffffffffffffff1681526020019081526020016000209080519060200190613585929190615500565b50600190509695505050505050565b6000809054906101000a900473ffffffffffffffffffffffffffffffffffffffff1681565b600033600160006101000a81548173ffffffffffffffffffffffffffffffffffffffff021916908373ffffffffffffffffffffffffffffffffffffffff1602179055506001600460003373ffffffffffffffffffffffffffffffffffffffff1673ffffffffffffffffffffffffffffffffffffffff16815260200190815260200160002060009054906101000a900460ff1660ff1614151561365a57600080fd5b87602d6000019080519060200190613673929190615500565b5086602d6001018190555085602d6002018190555084602d60030190805190602001906136a1929190615500565b5083602d60040190805190602001906136bb929190615500565b5082602d60050190805190602001906136d5929190615500565b5042602d6006018190555081602d60070181905550602d600960008b73ffffffffffffffffffffffffffffffffffffffff1673ffffffffffffffffffffffffffffffffffffffff16815260200190815260200160002060008201816000019080546001816001161561010002031660029004613752929190615580565b5060018201548160010155600282015481600201556003820181600301908054600181600116156101000203166002900461378e929190615580565b50600482018160040190805460018160011615610100020316600290046137b6929190615580565b50600582018160050190805460018160011615610100020316600290046137de929190615580565b5060068201548160060155600782015481600701559050506040805190810160405280600681526020017f504841524d410000000000000000000000000000000000000000000000000000815250600b60008b73ffffffffffffffffffffffffffffffffffffffff1673ffffffffffffffffffffffffffffffffffffffff168152602001908152602001600020908051906020019061387e929190615500565b506001905098975050505050505050565b606060008060608060606000806138a4615632565b33600160006101000a81548173ffffffffffffffffffffffffffffffffffffffff021916908373ffffffffffffffffffffffffffffffffffffffff1602179055506001600460003373ffffffffffffffffffffffffffffffffffffffff1673ffffffffffffffffffffffffffffffffffffffff16815260200190815260200160002060009054906101000a900460ff1660ff1614151561394357600080fd5b600960008b73ffffffffffffffffffffffffffffffffffffffff1673ffffffffffffffffffffffffffffffffffffffff1681526020019081526020016000206101006040519081016040529081600082018054600181600116156101000203166002900480601f016020809104026020016040519081016040528092919081815260200182805460018160011615610100020316600290048015613a285780601f106139fd57610100808354040283529160200191613a28565b820191906000526020600020905b815481529060010190602001808311613a0b57829003601f168201915b505050505081526020016001820154815260200160028201548152602001600382018054600181600116156101000203166002900480601f016020809104026020016040519081016040528092919081815260200182805460018160011615610100020316600290048015613ade5780601f10613ab357610100808354040283529160200191613ade565b820191906000526020600020905b815481529060010190602001808311613ac157829003601f168201915b50505050508152602001600482018054600181600116156101000203166002900480601f016020809104026020016040519081016040528092919081815260200182805460018160011615610100020316600290048015613b805780601f10613b5557610100808354040283529160200191613b80565b820191906000526020600020905b815481529060010190602001808311613b6357829003601f168201915b50505050508152602001600582018054600181600116156101000203166002900480601f016020809104026020016040519081016040528092919081815260200182805460018160011615610100020316600290048015613c225780601f10613bf757610100808354040283529160200191613c22565b820191906000526020600020905b815481529060010190602001808311613c0557829003601f168201915b50505050508152602001600682015481526020016007820154815250509050806000015181602001518260400151836060015184608001518560a001518660c001518760e001518797508494508393508292509850985098509850985098509850985050919395975091939597565b600060606000806060613ca2615678565b33600160006101000a81548173ffffffffffffffffffffffffffffffffffffffff021916908373ffffffffffffffffffffffffffffffffffffffff1602179055506001600460003373ffffffffffffffffffffffffffffffffffffffff1673ffffffffffffffffffffffffffffffffffffffff16815260200190815260200160002060009054906101000a900460ff1660ff16141515613d4157600080fd5b600a60008873ffffffffffffffffffffffffffffffffffffffff1673ffffffffffffffffffffffffffffffffffffffff16815260200190815260200160002060a0604051908101604052908160008201548152602001600182018054600181600116156101000203166002900480601f016020809104026020016040519081016040528092919081815260200182805460018160011615610100020316600290048015613e2f5780601f10613e0457610100808354040283529160200191613e2f565b820191906000526020600020905b815481529060010190602001808311613e1257829003601f168201915b505050505081526020016002820154815260200160038201548152602001600482018054600181600116156101000203166002900480601f016020809104026020016040519081016040528092919081815260200182805460018160011615610100020316600290048015613ee55780601f10613eba57610100808354040283529160200191613ee5565b820191906000526020600020905b815481529060010190602001808311613ec857829003601f168201915b505050505081525050905080600001518160200151826040015183606001518460800151839350809050955095509550955095505091939590929450565b600033600160006101000a81548173ffffffffffffffffffffffffffffffffffffffff021916908373ffffffffffffffffffffffffffffffffffffffff1602179055506001600460003373ffffffffffffffffffffffffffffffffffffffff1673ffffffffffffffffffffffffffffffffffffffff16815260200190815260200160002060009054906101000a900460ff1660ff16141515613fc457600080fd5b8760256000019080519060200190613fdd929190615500565b508660256001018190555085602560020181905550846025600301908051906020019061400b929190615500565b508360256004019080519060200190614025929190615500565b50826025600501908051906020019061403f929190615500565b5042602560060181905550816025600701819055506025600860008b73ffffffffffffffffffffffffffffffffffffffff1673ffffffffffffffffffffffffffffffffffffffff168152602001908152602001600020600082018160000190805460018160011615610100020316600290046140bc929190615580565b506001820154816001015560028201548160020155600382018160030190805460018160011615610100020316600290046140f8929190615580565b5060048201816004019080546001816001161561010002031660029004614120929190615580565b5060058201816005019080546001816001161561010002031660029004614148929190615580565b5060068201548160060155600782015481600701559050506040805190810160405280600b81526020017f4449535452494255544552000000000000000000000000000000000000000000815250600b60008b73ffffffffffffffffffffffffffffffffffffffff1673ffffffffffffffffffffffffffffffffffffffff16815260200190815260200160002090805190602001906141e8929190615500565b506001905098975050505050505050565b6060806000606080606060008061420e6156a8565b33600160006101000a81548173ffffffffffffffffffffffffffffffffffffffff021916908373ffffffffffffffffffffffffffffffffffffffff1602179055506001600460003373ffffffffffffffffffffffffffffffffffffffff1673ffffffffffffffffffffffffffffffffffffffff16815260200190815260200160002060009054906101000a900460ff1660ff161415156142ad57600080fd5b600660008b73ffffffffffffffffffffffffffffffffffffffff1673ffffffffffffffffffffffffffffffffffffffff1681526020019081526020016000206101006040519081016040529081600082018054600181600116156101000203166002900480601f0160208091040260200160405190810160405280929190818152602001828054600181600116156101000203166002900480156143925780601f1061436757610100808354040283529160200191614392565b820191906000526020600020905b81548152906001019060200180831161437557829003601f168201915b50505050508152602001600182018054600181600116156101000203166002900480601f0160208091040260200160405190810160405280929190818152602001828054600181600116156101000203166002900480156144345780601f1061440957610100808354040283529160200191614434565b820191906000526020600020905b81548152906001019060200180831161441757829003601f168201915b5050505050815260200160028201548152602001600382018054600181600116156101000203166002900480601f0160208091040260200160405190810160405280929190818152602001828054600181600116156101000203166002900480156144e05780601f106144b5576101008083540402835291602001916144e0565b820191906000526020600020905b8154815290600101906020018083116144c357829003601f168201915b50505050508152602001600482018054600181600116156101000203166002900480601f0160208091040260200160405190810160405280929190818152602001828054600181600116156101000203166002900480156145825780601f1061455757610100808354040283529160200191614582565b820191906000526020600020905b81548152906001019060200180831161456557829003601f168201915b50505050508152602001600582018054600181600116156101000203166002900480601f0160208091040260200160405190810160405280929190818152602001828054600181600116156101000203166002900480156146245780601f106145f957610100808354040283529160200191614624565b820191906000526020600020905b81548152906001019060200180831161460757829003601f168201915b50505050508152602001600682015481526020016007820154815250509050806000015181602001518260400151836060015184608001518560a001518660c001518760e001518797508696508494508393508292509850985098509850985098509850985050919395975091939597565b600033600160006101000a81548173ffffffffffffffffffffffffffffffffffffffff021916908373ffffffffffffffffffffffffffffffffffffffff1602179055506001600460003373ffffffffffffffffffffffffffffffffffffffff1673ffffffffffffffffffffffffffffffffffffffff16815260200190815260200160002060009054906101000a900460ff1660ff1614151561473757600080fd5b86601e6000019080519060200190614750929190615500565b5085601e6001018190555084601e6002019080519060200190614774929190615500565b5083601e600301908051906020019061478e929190615500565b5082601e60040190805190602001906147a8929190615500565b5042601e6005018190555081601e60060181905550601e600760008a73ffffffffffffffffffffffffffffffffffffffff1673ffffffffffffffffffffffffffffffffffffffff16815260200190815260200160002060008201816000019080546001816001161561010002031660029004614825929190615580565b506001820154816001015560028201816002019080546001816001161561010002031660029004614857929190615580565b506003820181600301908054600181600116156101000203166002900461487f929190615580565b50600482018160040190805460018160011615610100020316600290046148a7929190615580565b5060058201548160050155600682015481600601559050506040805190810160405280600a81526020017f57484f4c4553414c455200000000000000000000000000000000000000000000815250600b60008a73ffffffffffffffffffffffffffffffffffffffff1673ffffffffffffffffffffffffffffffffffffffff1681526020019081526020016000209080519060200190614947929190615500565b5060019050979650505050505050565b606060006060806060806149696156ee565b33600160006101000a81548173ffffffffffffffffffffffffffffffffffffffff021916908373ffffffffffffffffffffffffffffffffffffffff1602179055506001600460003373ffffffffffffffffffffffffffffffffffffffff1673ffffffffffffffffffffffffffffffffffffffff16815260200190815260200160002060009054906101000a900460ff1660ff16141515614a0857600080fd5b600560008973ffffffffffffffffffffffffffffffffffffffff1673ffffffffffffffffffffffffffffffffffffffff16815260200190815260200160002060c06040519081016040529081600082018054600181600116156101000203166002900480601f016020809104026020016040519081016040528092919081815260200182805460018160011615610100020316600290048015614aec5780601f10614ac157610100808354040283529160200191614aec565b820191906000526020600020905b815481529060010190602001808311614acf57829003601f168201915b5050505050815260200160018201548152602001600282018054600181600116156101000203166002900480601f016020809104026020016040519081016040528092919081815260200182805460018160011615610100020316600290048015614b985780601f10614b6d57610100808354040283529160200191614b98565b820191906000526020600020905b815481529060010190602001808311614b7b57829003601f168201915b50505050508152602001600382018054600181600116156101000203166002900480601f016020809104026020016040519081016040528092919081815260200182805460018160011615610100020316600290048015614c3a5780601f10614c0f57610100808354040283529160200191614c3a565b820191906000526020600020905b815481529060010190602001808311614c1d57829003601f168201915b50505050508152602001600482018054600181600116156101000203166002900480601f016020809104026020016040519081016040528092919081815260200182805460018160011615610100020316600290048015614cdc5780601f10614cb157610100808354040283529160200191614cdc565b820191906000526020600020905b815481529060010190602001808311614cbf57829003601f168201915b50505050508152602001600582018054600181600116156101000203166002900480601f016020809104026020016040519081016040528092919081815260200182805460018160011615610100020316600290048015614d7e5780601f10614d5357610100808354040283529160200191614d7e565b820191906000526020600020905b815481529060010190602001808311614d6157829003601f168201915b5050505050815250509050806000015181602001518260400151836060015184608001518560a001518595508393508292508191508090509650965096509650965096505091939550919395565b6000809054906101000a900473ffffffffffffffffffffffffffffffffffffffff1673ffffffffffffffffffffffffffffffffffffffff163373ffffffffffffffffffffffffffffffffffffffff16141515614e2757600080fd5b600073ffffffffffffffffffffffffffffffffffffffff168173ffffffffffffffffffffffffffffffffffffffff1614151515614e6357600080fd5b8073ffffffffffffffffffffffffffffffffffffffff166000809054906101000a900473ffffffffffffffffffffffffffffffffffffffff1673ffffffffffffffffffffffffffffffffffffffff167f8be0079c531659141344cd1fd0a4f28419497f9722a3daafe3b4186f6b6457e060405160405180910390a3806000806101000a81548173ffffffffffffffffffffffffffffffffffffffff021916908373ffffffffffffffffffffffffffffffffffffffff16021790555050565b600033600160006101000a81548173ffffffffffffffffffffffffffffffffffffffff021916908373ffffffffffffffffffffffffffffffffffffffff1602179055506001600460003373ffffffffffffffffffffffffffffffffffffffff1673ffffffffffffffffffffffffffffffffffffffff16815260200190815260200160002060009054906101000a900460ff1660ff16141515614fc257600080fd5b8760166000019080519060200190614fdb929190615500565b508660166001019080519060200190614ff5929190615500565b50856016600201819055508460166003019080519060200190615019929190615500565b508360166004019080519060200190615033929190615500565b50826016600501908051906020019061504d929190615500565b5042601660060181905550816016600701819055506016600660008b73ffffffffffffffffffffffffffffffffffffffff1673ffffffffffffffffffffffffffffffffffffffff168152602001908152602001600020600082018160000190805460018160011615610100020316600290046150ca929190615580565b50600182018160010190805460018160011615610100020316600290046150f2929190615580565b506002820154816002015560038201816003019080546001816001161561010002031660029004615124929190615580565b506004820181600401908054600181600116156101000203166002900461514c929190615580565b5060058201816005019080546001816001161561010002031660029004615174929190615580565b5060068201548160060155600782015481600701559050506040805190810160405280600c81526020017f4d414e5546414354555245520000000000000000000000000000000000000000815250600b60008b73ffffffffffffffffffffffffffffffffffffffff1673ffffffffffffffffffffffffffffffffffffffff1681526020019081526020016000209080519060200190615214929190615500565b506001905098975050505050505050565b600033600160006101000a81548173ffffffffffffffffffffffffffffffffffffffff021916908373ffffffffffffffffffffffffffffffffffffffff1602179055506001600460003373ffffffffffffffffffffffffffffffffffffffff1673ffffffffffffffffffffffffffffffffffffffff16815260200190815260200160002060009054906101000a900460ff1660ff161415156152c657600080fd5b85600c60000190805190602001906152df929190615500565b5084600c60010190805190602001906152f9929190615500565b5082600c60020160006101000a81548160ff02191690831515021790555081600c6003019080519060200190615330929190615500565b50600c600260008973ffffffffffffffffffffffffffffffffffffffff1673ffffffffffffffffffffffffffffffffffffffff16815260200190815260200160002060008201816000019080546001816001161561010002031660029004615399929190615580565b50600182018160010190805460018160011615610100020316600290046153c1929190615580565b506002820160009054906101000a900460ff168160020160006101000a81548160ff02191690831515021790555060038201816003019080546001816001161561010002031660029004615416929190615580565b5090505083600360008973ffffffffffffffffffffffffffffffffffffffff1673ffffffffffffffffffffffffffffffffffffffff168152602001908152602001600020908051906020019061546d929190615500565b50600190509695505050505050565b6101006040519081016040528060608152602001600081526020016000815260200160608152602001606081526020016060815260200160008152602001600081525090565b60e060405190810160405280606081526020016000815260200160608152602001606081526020016060815260200160008152602001600081525090565b828054600181600116156101000203166002900490600052602060002090601f016020900481019282601f1061554157805160ff191683800117855561556f565b8280016001018555821561556f579182015b8281111561556e578251825591602001919060010190615553565b5b50905061557c9190615725565b5090565b828054600181600116156101000203166002900490600052602060002090601f016020900481019282601f106155b957805485556155f6565b828001600101855582156155f657600052602060002091601f016020900482015b828111156155f55782548255916001019190600101906155da565b5b5090506156039190615725565b5090565b6080604051908101604052806060815260200160608152602001600015158152602001606081525090565b6101006040519081016040528060608152602001600081526020016000815260200160608152602001606081526020016060815260200160008152602001600081525090565b60a06040519081016040528060008152602001606081526020016000815260200160008152602001606081525090565b6101006040519081016040528060608152602001606081526020016000815260200160608152602001606081526020016060815260200160008152602001600081525090565b60c0604051908101604052806060815260200160008152602001606081526020016060815260200160608152602001606081525090565b61574791905b8082111561574357600081600090555060010161572b565b5090565b905600a165627a7a72305820c0fc10df1cf0657f1b98e2770f0162b5b6eed671751a2f4ffd578fb8d0010f730029",
  "source": "pragma solidity ^0.4.23;\r\n\r\nimport \"./SupplyChainStorageOwnable.sol\";\r\n\r\ncontract SupplyChainStorage is SupplyChainStorageOwnable \r\n{\r\n    \r\n    address public lastAccess;\r\n    constructor() public {\r\n        authorizedCaller[msg.sender] = 1;\r\n        emit AuthorizedCaller(msg.sender);\r\n    }\r\n    \r\n    /* Events */\r\n    event AuthorizedCaller(address caller);\r\n    event DeAuthorizedCaller(address caller);\r\n    \r\n    /* Modifiers */\r\n    modifier onlyAuthCaller(){\r\n        lastAccess = msg.sender;\r\n        require(authorizedCaller[msg.sender] == 1);\r\n        _;\r\n    }\r\n    \r\n    /* User Related */\r\n    struct user {\r\n        string name;\r\n        string contactNo;\r\n        bool isActive;\r\n        string profileHash;\r\n    } \r\n    \r\n    mapping(address => user) userDetails;\r\n    mapping(address => string) userRole;\r\n    \r\n    /* Caller Mapping */\r\n    mapping(address => uint8) authorizedCaller;\r\n    \r\n  \r\n    function authorizeCaller(address _caller) public onlyOwner returns(bool) \r\n    {\r\n        authorizedCaller[_caller] = 1;\r\n        emit AuthorizedCaller(_caller);\r\n        return true;\r\n    }\r\n    \r\n  \r\n    function deAuthorizeCaller(address _caller) public onlyOwner returns(bool) \r\n    {\r\n        authorizedCaller[_caller] = 0;\r\n        emit DeAuthorizedCaller(_caller);\r\n        return true;\r\n    }\r\n    \r\n  \r\n    /* Process Related */\r\n     struct basicDetails {\r\n        string batchDescription;\r\n        uint256 quantity;\r\n        string supplierAddress;\r\n        string manufacturerAddress;\r\n        string wholesalerAddress;\r\n        string distributerAddress;\r\n    }\r\n    \r\n    struct supplier {\r\n        string rawMaterials;\r\n        string description;\r\n        uint256 quantity;\r\n        string shipperName;\r\n        string recieverAddress;\r\n        string receiverName;\r\n        uint256 dispatchDateTime;\r\n        uint256 cost;\r\n    }\r\n    \r\n    struct manufacturer {\r\n        string description;\r\n        uint256 quantity;\r\n        string shipperName;\r\n        string recieverAddress;\r\n        string receiverName;\r\n        uint256 dispatchDateTime;\r\n        uint256 cost;\r\n    }    \r\n    \r\n    struct wholesaler {\r\n        string description;\r\n        uint256 quantity;\r\n        uint256 receivedDateTime;\r\n        string shipperName;\r\n        string recieverAddress;\r\n        string receiverName;\r\n        uint256 dispatchDateTime;\r\n        uint256 cost;\r\n\r\n    }\r\n    \r\n    struct distributer {\r\n        string description;\r\n        uint256 quantity;\r\n        uint256 receivedDateTime;\r\n        string shipperName;\r\n        string recieverAddress;\r\n        string receiverName;\r\n        uint256 dispatchDateTime;\r\n        uint256 cost;\r\n    }\r\n    \r\n    struct pharma {\r\n        uint256 quantityRecieved;\r\n        string description;\r\n        uint256 arrivalDateTime;\r\n        uint256 cost;\r\n        string senderAddress;\r\n    }\r\n    \r\n    mapping (address => basicDetails) batchBasicDetails;\r\n    mapping (address => supplier) batchSupplier;\r\n    mapping (address => manufacturer) batchManufacturer;\r\n    mapping (address => wholesaler) batchWholesaler;\r\n    mapping (address => distributer) batchDistributer;\r\n    mapping (address => pharma) batchPharma;\r\n    mapping (address => string) nextAction;\r\n    \r\n    /*Initialize struct pointer*/\r\n    user userDetail;\r\n    basicDetails basicDetailsData;\r\n    supplier supplierData;\r\n    manufacturer manufacturerData;\r\n    wholesaler wholesalerData;\r\n    distributer distributerData;\r\n    pharma pharmaData; \r\n    \r\n    \r\n    \r\n    /* Get User Role */\r\n    function getUserRole(address _userAddress) public onlyAuthCaller view returns(string)\r\n    {\r\n        return userRole[_userAddress];\r\n    }\r\n    \r\n     /* Get Next Action  */    \r\n    function getNextAction(address _batchNo) public onlyAuthCaller view returns(string)\r\n    {\r\n        return nextAction[_batchNo];\r\n    }  \r\n\r\n    /*set user details*/\r\n    function setUser(address _userAddress,\r\n                     string _name, \r\n                     string _contactNo, \r\n                     string _role, \r\n                      bool _isActive,\r\n                     string _profileHash) public onlyAuthCaller returns(bool){\r\n        \r\n        /*store data into struct*/\r\n        userDetail.name = _name;\r\n        userDetail.contactNo = _contactNo;\r\n         userDetail.isActive = _isActive;\r\n        userDetail.profileHash = _profileHash;\r\n        \r\n        /*store data into mapping*/\r\n        userDetails[_userAddress] = userDetail;\r\n        userRole[_userAddress] = _role;\r\n        \r\n        return true;\r\n    }  \r\n    \r\n    /*get user details*/\r\n    function getUser(address _userAddress) public onlyAuthCaller view returns(string name, \r\n                                                                    string contactNo, \r\n                                                                    string role,\r\n                                                                    bool isActive, \r\n                                                                    string profileHash\r\n                                                                ){\r\n\r\n        /*Getting value from struct*/\r\n        user memory tmpData = userDetails[_userAddress];\r\n                                                                     \r\n        return (tmpData.name, tmpData.contactNo, userRole[_userAddress], tmpData.isActive, tmpData.profileHash);\r\n    }\r\n    \r\n    /*get batch basicDetails*/\r\n    function getBasicDetails(address _batchNo) public onlyAuthCaller view returns(string batchDescription,\r\n                            uint256 quantity,\r\n                            string supplierAddress,\r\n                            string manufacturerAddress,\r\n                            string wholesalerAddress,\r\n                            string distributerAddress) {\r\n        \r\n        basicDetails memory tmpData = batchBasicDetails[_batchNo];\r\n        \r\n        return (tmpData.batchDescription,tmpData.quantity,tmpData.supplierAddress,tmpData.manufacturerAddress,tmpData.wholesalerAddress,tmpData.distributerAddress);\r\n    }\r\n\r\n     /*set batch basicDetails*/\r\n    function setBasicDetails(string _batchDescription,\r\n                             uint256 _quantity,\r\n                             string _supplierAddress,\r\n                             string _manufacturerAddress,\r\n                             string _wholesalerAddress,\r\n                             string _distributerAddress\r\n                            ) public onlyAuthCaller returns(address) {\r\n        \r\n        uint tmpData = uint(keccak256(msg.sender, now));\r\n        address batchNo = address(tmpData);\r\n        \r\n        basicDetailsData.batchDescription = _batchDescription;\r\n        basicDetailsData.quantity = _quantity;\r\n        basicDetailsData.supplierAddress = _supplierAddress;\r\n        basicDetailsData.manufacturerAddress = _manufacturerAddress;\r\n        basicDetailsData.wholesalerAddress = _wholesalerAddress;\r\n        basicDetailsData.distributerAddress = _distributerAddress;\r\n        batchBasicDetails[batchNo] = basicDetailsData;\r\n        \r\n        nextAction[batchNo] = 'SUPPLIER';   \r\n        return batchNo;\r\n    }   \r\n\r\n    /*set supplier data*/\r\n    function setSupplierData(address batchNo,\r\n                                    string _rawMaterials,\r\n                                    string _description,\r\n                                    uint256 _quantity,\r\n                                    string _shipperName,\r\n                                    string _recieverAddress,\r\n                                    string _receiverName,\r\n                                    uint256 _cost) public onlyAuthCaller returns(bool){\r\n        supplierData.rawMaterials = _rawMaterials;\r\n        supplierData.description = _description;\r\n        supplierData.quantity = _quantity;\r\n        supplierData.shipperName=_shipperName;\r\n        supplierData.recieverAddress=_recieverAddress;\r\n        supplierData.receiverName=_receiverName;\r\n        supplierData.dispatchDateTime=now;\r\n        supplierData.cost=_cost;\r\n        \r\n        batchSupplier[batchNo] = supplierData;\r\n        \r\n        nextAction[batchNo] = 'MANUFACTURER'; \r\n        \r\n        return true;\r\n    }\r\n\r\n    /*get supplier data*/\r\n    function getSupplierData(address batchNo) public onlyAuthCaller view returns (string rawMaterials,string description,uint256 quantity,string shipperName,string recieverAddress,\r\n                                                                                        string receiverName,uint256 dispatchDateTime,uint256 cost){\r\n        \r\n        supplier memory tmpData = batchSupplier[batchNo];\r\n        return (tmpData.rawMaterials, tmpData.description, tmpData.quantity, tmpData.shipperName, tmpData.recieverAddress, tmpData.receiverName, tmpData.dispatchDateTime, tmpData.cost);\r\n    }\r\n\r\n    /*set Manufacturer data*/\r\n    function setManufacturerData(address batchNo,\r\n                              string _description,\r\n                              uint256 _quantity,\r\n                              string _shipperName,\r\n                              string _recieverAddress,\r\n                              string _receiverName,\r\n                              uint256 _cost) public onlyAuthCaller returns(bool){\r\n        manufacturerData.description = _description;\r\n        manufacturerData.quantity = _quantity;\r\n        manufacturerData.shipperName = _shipperName;\r\n        manufacturerData.recieverAddress=_recieverAddress;\r\n        manufacturerData.receiverName=_receiverName;\r\n        manufacturerData.dispatchDateTime= now;\r\n        manufacturerData.cost= _cost;\r\n        batchManufacturer[batchNo] = manufacturerData;\r\n        \r\n        nextAction[batchNo] = 'WHOLESALER'; \r\n        \r\n        return true;\r\n    } \r\n    /*get Manufacturer data*/\r\n    function getManufacturerData(address batchNo) public onlyAuthCaller view returns(string description,uint256 quantity,\r\n                                                                                    string shipperName,\r\n                                                                                    string recieverAddress,\r\n                                                                                    string receiverName,\r\n                                                                                    uint256 dispatchDateTime,\r\n                                                                                    uint256 cost){\r\n        \r\n        manufacturer memory tmpData = batchManufacturer[batchNo];\r\n        return (tmpData.description, tmpData.quantity, tmpData.shipperName, tmpData.recieverAddress, tmpData.receiverName, tmpData.dispatchDateTime, tmpData.cost);\r\n    }\r\n\r\n    /*set Wholesaler data*/\r\n    function setWholesalerData(address batchNo,\r\n                            string _description,\r\n                            uint256 _quantity,\r\n                            uint256 _receivedDateTime,\r\n                            string _shipperName,\r\n                            string _recieverAddress,\r\n                            string _receiverName,\r\n                            uint256 _cost) public onlyAuthCaller returns(bool){\r\n        \r\n        wholesalerData.description = _description;\r\n        wholesalerData.quantity = _quantity;\r\n        wholesalerData.receivedDateTime = _receivedDateTime;\r\n        wholesalerData.shipperName = _shipperName;\r\n        wholesalerData.recieverAddress = _recieverAddress;\r\n        wholesalerData.receiverName = _receiverName;\r\n        wholesalerData.dispatchDateTime = now;\r\n        wholesalerData.cost= _cost;\r\n        batchWholesaler[batchNo] = wholesalerData;\r\n        \r\n        nextAction[batchNo] = 'DISTRIBUTER'; \r\n        \r\n        return true;\r\n    }\r\n    /*get Wholesaler data*/\r\n    function getWholesalerData(address batchNo) public onlyAuthCaller view returns(string description,\r\n                                                                                uint256 quantity,\r\n                                                                                uint256 receivedDateTime,\r\n                                                                                string shipperName,\r\n                                                                                string recieverAddress,\r\n                                                                                string receiverName,\r\n                                                                                uint256 dispatchDateTime,\r\n                                                                                uint256 cost){\r\n        \r\n        \r\n        wholesaler memory tmpData = batchWholesaler[batchNo];\r\n        \r\n        return (tmpData.description, \r\n                tmpData.quantity, \r\n                tmpData.receivedDateTime, \r\n                tmpData.shipperName, \r\n                tmpData.recieverAddress, \r\n                tmpData.receiverName, \r\n                tmpData.dispatchDateTime,\r\n                tmpData.cost);\r\n           \r\n    }\r\n\r\n    /*set Distributer data*/\r\n    function setDistributerData(address batchNo,\r\n                            string _description,\r\n                            uint256 _quantity,\r\n                            uint256 _receivedDateTime,\r\n                            string _shipperName,\r\n                            string _recieverAddress,\r\n                            string _receiverName,\r\n                            uint256 _cost) public onlyAuthCaller returns(bool){\r\n        \r\n        distributerData.description= _description;\r\n        distributerData.quantity = _quantity;\r\n        distributerData.receivedDateTime = _receivedDateTime;\r\n        distributerData.shipperName = _shipperName;\r\n        distributerData.recieverAddress = _recieverAddress;\r\n        distributerData.receiverName = _receiverName;\r\n        distributerData.dispatchDateTime = now;\r\n        distributerData.cost = _cost;\r\n        \r\n        batchDistributer[batchNo] = distributerData;\r\n        \r\n        nextAction[batchNo] = 'PHARMA'; \r\n        \r\n        return true;\r\n    }\r\n    /*get Distributer data*/\r\n    function getDistributerData(address batchNo) public onlyAuthCaller view returns(string description,\r\n                                                                                uint256 quantity,\r\n                                                                                uint256 receivedDateTime,\r\n                                                                                string shipperName,\r\n                                                                                string recieverAddress,\r\n                                                                                string receiverName,\r\n                                                                                uint256 dispatchDateTime,\r\n                                                                                uint256 cost){\r\n        \r\n        distributer memory tmpData = batchDistributer[batchNo];\r\n        \r\n        \r\n        return (tmpData.description, \r\n                tmpData.quantity, \r\n                tmpData.receivedDateTime, \r\n                tmpData.shipperName, \r\n                tmpData.recieverAddress,\r\n                tmpData.receiverName,\r\n                tmpData.dispatchDateTime,\r\n                tmpData.cost);  \r\n    }\r\n\r\n    /*set Pharma data*/\r\n    function setPharmaData(address batchNo,\r\n                            uint256 _quantityRecieved,\r\n                            string _description,\r\n                            uint256 _arrivalDateTime,\r\n                            uint256 _cost,\r\n                            string _senderAddress) public onlyAuthCaller returns(bool){\r\n        \r\n        \r\n        pharmaData.quantityRecieved = _quantityRecieved;\r\n        pharmaData.description = _description;\r\n        pharmaData.arrivalDateTime = _arrivalDateTime;\r\n        pharmaData.cost = _cost;\r\n        pharmaData.senderAddress = _senderAddress;\r\n        \r\n        batchPharma[batchNo] = pharmaData;\r\n        \r\n        nextAction[batchNo] = 'DONE'; \r\n        \r\n        return true;\r\n    }\r\n    /*get Pharma data*/\r\n    function getPharmaData( address batchNo) public onlyAuthCaller view returns(uint256 quantityRecieved,\r\n                                                                                string description,\r\n                                                                                uint256 arrivalDateTime,\r\n                                                                                uint256 cost,\r\n                                                                                string senderAddress){\r\n\r\n        pharma memory tmpData = batchPharma[batchNo];\r\n        \r\n        return (\r\n                tmpData.quantityRecieved, \r\n                tmpData.description, \r\n                tmpData.arrivalDateTime, \r\n                tmpData.cost,\r\n                tmpData.senderAddress\r\n                );\r\n          \r\n    }\r\n  \r\n}    \r\n",
  "sourcePath": "E:\\PROJECT\\Blockchain Vaccine supply chain\\contracts\\SupplyChainStorage.sol",
  "compiler": {
    "name": "solc",
    "version": "0.4.23+commit.124ca40d.Emscripten.clang"
  },
  "schemaVersion": "2.0.0",
  "updatedAt": "2021-07-07T14:51:05.834Z"
}