{
  "contractName": "VaccineSupplyChain",
  "abi": [
    {
      "constant": false,
      "inputs": [],
      "name": "renounceOwnership",
      "outputs": [],
      "payable": false,
      "stateMutability": "nonpayable",
      "type": "function"
    },
    {
      "constant": true,
      "inputs": [],
      "name": "owner",
      "outputs": [
        {
          "name": "",
          "type": "address"
        }
      ],
      "payable": false,
      "stateMutability": "view",
      "type": "function"
    },
    {
      "constant": false,
      "inputs": [
        {
          "name": "newOwner",
          "type": "address"
        }
      ],
      "name": "transferOwnership",
      "outputs": [],
      "payable": false,
      "stateMutability": "nonpayable",
      "type": "function"
    },
    {
      "inputs": [
        {
          "name": "_supplyChainAddress",
          "type": "address"
        }
      ],
      "payable": false,
      "stateMutability": "nonpayable",
      "type": "constructor"
    },
    {
      "anonymous": false,
      "inputs": [
        {
          "indexed": true,
          "name": "user",
          "type": "address"
        },
        {
          "indexed": true,
          "name": "batchNo",
          "type": "address"
        }
      ],
      "name": "CreateVaccineBatch",
      "type": "event"
    },
    {
      "anonymous": false,
      "inputs": [
        {
          "indexed": true,
          "name": "user",
          "type": "address"
        },
        {
          "indexed": true,
          "name": "batchNo",
          "type": "address"
        }
      ],
      "name": "DoneSupplying",
      "type": "event"
    },
    {
      "anonymous": false,
      "inputs": [
        {
          "indexed": true,
          "name": "user",
          "type": "address"
        },
        {
          "indexed": true,
          "name": "batchNo",
          "type": "address"
        }
      ],
      "name": "DoneManufacturing",
      "type": "event"
    },
    {
      "anonymous": false,
      "inputs": [
        {
          "indexed": true,
          "name": "user",
          "type": "address"
        },
        {
          "indexed": true,
          "name": "batchNo",
          "type": "address"
        }
      ],
      "name": "DoneWholesaling",
      "type": "event"
    },
    {
      "anonymous": false,
      "inputs": [
        {
          "indexed": true,
          "name": "user",
          "type": "address"
        },
        {
          "indexed": true,
          "name": "batchNo",
          "type": "address"
        }
      ],
      "name": "DoneDistribution",
      "type": "event"
    },
    {
      "anonymous": false,
      "inputs": [
        {
          "indexed": true,
          "name": "user",
          "type": "address"
        },
        {
          "indexed": true,
          "name": "batchNo",
          "type": "address"
        }
      ],
      "name": "DonePharmaDelivery",
      "type": "event"
    },
    {
      "anonymous": false,
      "inputs": [
        {
          "indexed": true,
          "name": "previousOwner",
          "type": "address"
        }
      ],
      "name": "OwnershipRenounced",
      "type": "event"
    },
    {
      "anonymous": false,
      "inputs": [
        {
          "indexed": true,
          "name": "previousOwner",
          "type": "address"
        },
        {
          "indexed": true,
          "name": "newOwner",
          "type": "address"
        }
      ],
      "name": "OwnershipTransferred",
      "type": "event"
    },
    {
      "constant": true,
      "inputs": [
        {
          "name": "_batchNo",
          "type": "address"
        }
      ],
      "name": "getNextAction",
      "outputs": [
        {
          "name": "action",
          "type": "string"
        }
      ],
      "payable": false,
      "stateMutability": "view",
      "type": "function"
    },
    {
      "constant": true,
      "inputs": [
        {
          "name": "_batchNo",
          "type": "address"
        }
      ],
      "name": "getBasicDetails",
      "outputs": [
        {
          "name": "batchDescription",
          "type": "string"
        },
        {
          "name": "quantity",
          "type": "uint256"
        },
        {
          "name": "supplierAddress",
          "type": "string"
        },
        {
          "name": "manufacturerAddress",
          "type": "string"
        },
        {
          "name": "wholesalerAddress",
          "type": "string"
        },
        {
          "name": "distributerAddress",
          "type": "string"
        }
      ],
      "payable": false,
      "stateMutability": "view",
      "type": "function"
    },
    {
      "constant": false,
      "inputs": [
        {
          "name": "_batchDescription",
          "type": "string"
        },
        {
          "name": "_quantity",
          "type": "uint256"
        },
        {
          "name": "_supplierAddress",
          "type": "string"
        },
        {
          "name": "_manufacturerAddress",
          "type": "string"
        },
        {
          "name": "_wholesalerAddress",
          "type": "string"
        },
        {
          "name": "_distributerAddress",
          "type": "string"
        }
      ],
      "name": "addBasicDetails",
      "outputs": [
        {
          "name": "",
          "type": "address"
        }
      ],
      "payable": false,
      "stateMutability": "nonpayable",
      "type": "function"
    },
    {
      "constant": true,
      "inputs": [
        {
          "name": "_batchNo",
          "type": "address"
        }
      ],
      "name": "getSupplierData",
      "outputs": [
        {
          "name": "rawMaterials",
          "type": "string"
        },
        {
          "name": "description",
          "type": "string"
        },
        {
          "name": "quantity",
          "type": "uint256"
        },
        {
          "name": "shipperName",
          "type": "string"
        },
        {
          "name": "recieverAddress",
          "type": "string"
        },
        {
          "name": "receiverName",
          "type": "string"
        },
        {
          "name": "dispatchDateTime",
          "type": "uint256"
        },
        {
          "name": "cost",
          "type": "uint256"
        }
      ],
      "payable": false,
      "stateMutability": "view",
      "type": "function"
    },
    {
      "constant": false,
      "inputs": [
        {
          "name": "_batchNo",
          "type": "address"
        },
        {
          "name": "_rawMaterials",
          "type": "string"
        },
        {
          "name": "_description",
          "type": "string"
        },
        {
          "name": "_quantity",
          "type": "uint256"
        },
        {
          "name": "_shipperName",
          "type": "string"
        },
        {
          "name": "_recieverAddress",
          "type": "string"
        },
        {
          "name": "_receiverName",
          "type": "string"
        },
        {
          "name": "_cost",
          "type": "uint256"
        }
      ],
      "name": "updateSupplierData",
      "outputs": [
        {
          "name": "",
          "type": "bool"
        }
      ],
      "payable": false,
      "stateMutability": "nonpayable",
      "type": "function"
    },
    {
      "constant": true,
      "inputs": [
        {
          "name": "_batchNo",
          "type": "address"
        }
      ],
      "name": "getManufacturerData",
      "outputs": [
        {
          "name": "description",
          "type": "string"
        },
        {
          "name": "quantity",
          "type": "uint256"
        },
        {
          "name": "shipperName",
          "type": "string"
        },
        {
          "name": "recieverAddress",
          "type": "string"
        },
        {
          "name": "receiverName",
          "type": "string"
        },
        {
          "name": "dispatchDateTime",
          "type": "uint256"
        },
        {
          "name": "cost",
          "type": "uint256"
        }
      ],
      "payable": false,
      "stateMutability": "view",
      "type": "function"
    },
    {
      "constant": false,
      "inputs": [
        {
          "name": "_batchNo",
          "type": "address"
        },
        {
          "name": "_description",
          "type": "string"
        },
        {
          "name": "_quantity",
          "type": "uint256"
        },
        {
          "name": "_shipperName",
          "type": "string"
        },
        {
          "name": "_recieverAddress",
          "type": "string"
        },
        {
          "name": "_receiverName",
          "type": "string"
        },
        {
          "name": "_cost",
          "type": "uint256"
        }
      ],
      "name": "updateManufacturerData",
      "outputs": [
        {
          "name": "",
          "type": "bool"
        }
      ],
      "payable": false,
      "stateMutability": "nonpayable",
      "type": "function"
    },
    {
      "constant": true,
      "inputs": [
        {
          "name": "_batchNo",
          "type": "address"
        }
      ],
      "name": "getWholesalerData",
      "outputs": [
        {
          "name": "description",
          "type": "string"
        },
        {
          "name": "quantity",
          "type": "uint256"
        },
        {
          "name": "receivedDateTime",
          "type": "uint256"
        },
        {
          "name": "shipperName",
          "type": "string"
        },
        {
          "name": "recieverAddress",
          "type": "string"
        },
        {
          "name": "receiverName",
          "type": "string"
        },
        {
          "name": "dispatchDateTime",
          "type": "uint256"
        },
        {
          "name": "cost",
          "type": "uint256"
        }
      ],
      "payable": false,
      "stateMutability": "view",
      "type": "function"
    },
    {
      "constant": false,
      "inputs": [
        {
          "name": "_batchNo",
          "type": "address"
        },
        {
          "name": "_description",
          "type": "string"
        },
        {
          "name": "_quantity",
          "type": "uint256"
        },
        {
          "name": "_receivedDateTime",
          "type": "uint256"
        },
        {
          "name": "_shipperName",
          "type": "string"
        },
        {
          "name": "_recieverAddress",
          "type": "string"
        },
        {
          "name": "_receiverName",
          "type": "string"
        },
        {
          "name": "_cost",
          "type": "uint256"
        }
      ],
      "name": "updateWholesalerData",
      "outputs": [
        {
          "name": "",
          "type": "bool"
        }
      ],
      "payable": false,
      "stateMutability": "nonpayable",
      "type": "function"
    },
    {
      "constant": true,
      "inputs": [
        {
          "name": "_batchNo",
          "type": "address"
        }
      ],
      "name": "getDistributerData",
      "outputs": [
        {
          "name": "description",
          "type": "string"
        },
        {
          "name": "quantity",
          "type": "uint256"
        },
        {
          "name": "receivedDateTime",
          "type": "uint256"
        },
        {
          "name": "shipperName",
          "type": "string"
        },
        {
          "name": "recieverAddress",
          "type": "string"
        },
        {
          "name": "receiverName",
          "type": "string"
        },
        {
          "name": "dispatchDateTime",
          "type": "uint256"
        },
        {
          "name": "cost",
          "type": "uint256"
        }
      ],
      "payable": false,
      "stateMutability": "view",
      "type": "function"
    },
    {
      "constant": false,
      "inputs": [
        {
          "name": "_batchNo",
          "type": "address"
        },
        {
          "name": "_description",
          "type": "string"
        },
        {
          "name": "_quantity",
          "type": "uint256"
        },
        {
          "name": "_receivedDateTime",
          "type": "uint256"
        },
        {
          "name": "_shipperName",
          "type": "string"
        },
        {
          "name": "_recieverAddress",
          "type": "string"
        },
        {
          "name": "_receiverName",
          "type": "string"
        },
        {
          "name": "_cost",
          "type": "uint256"
        }
      ],
      "name": "updateDistributerData",
      "outputs": [
        {
          "name": "",
          "type": "bool"
        }
      ],
      "payable": false,
      "stateMutability": "nonpayable",
      "type": "function"
    },
    {
      "constant": true,
      "inputs": [
        {
          "name": "_batchNo",
          "type": "address"
        }
      ],
      "name": "getPharmaData",
      "outputs": [
        {
          "name": "quantityRecieved",
          "type": "uint256"
        },
        {
          "name": "description",
          "type": "string"
        },
        {
          "name": "arrivalDateTime",
          "type": "uint256"
        },
        {
          "name": "cost",
          "type": "uint256"
        },
        {
          "name": "senderAddress",
          "type": "string"
        }
      ],
      "payable": false,
      "stateMutability": "view",
      "type": "function"
    },
    {
      "constant": false,
      "inputs": [
        {
          "name": "_batchNo",
          "type": "address"
        },
        {
          "name": "_quantityRecieved",
          "type": "uint256"
        },
        {
          "name": "_description",
          "type": "string"
        },
        {
          "name": "_arrivalDateTime",
          "type": "uint256"
        },
        {
          "name": "_cost",
          "type": "uint256"
        },
        {
          "name": "_senderAddress",
          "type": "string"
        }
      ],
      "name": "updatePharmaData",
      "outputs": [
        {
          "name": "",
          "type": "bool"
        }
      ],
      "payable": false,
      "stateMutability": "nonpayable",
      "type": "function"
    }
  ],
  "bytecode": "0x608060405234801561001057600080fd5b506040516020806200568a83398101806040528101908080519060200190929190505050336000806101000a81548173ffffffffffffffffffffffffffffffffffffffff021916908373ffffffffffffffffffffffffffffffffffffffff16021790555080600160006101000a81548173ffffffffffffffffffffffffffffffffffffffff021916908373ffffffffffffffffffffffffffffffffffffffff160217905550506155c480620000c66000396000f3006080604052600436106100e6576000357c0100000000000000000000000000000000000000000000000000000000900463ffffffff168063109c9236146100eb5780631e92f5fc146101f057806331f871911461040c5780633208fbf41461059357806335057b6b1461075e5780634d6b5e001461097357806351f4d23c14610a2f578063715018a614610bfc578063881644ce14610c135780638da5cb5b14610da4578063b72f17e714610dfb578063b7a0883614611017578063c02d44a614611154578063d7d0eb87146112e5578063f2997d7614611566578063f2fde38b146117d9575b600080fd5b3480156100f757600080fd5b506101d6600480360381019080803573ffffffffffffffffffffffffffffffffffffffff16906020019092919080359060200190929190803590602001908201803590602001908080601f01602080910402602001604051908101604052809392919081815260200183838082843782019150505050505091929192908035906020019092919080359060200190929190803590602001908201803590602001908080601f016020809104026020016040519081016040528093929190818152602001838380828437820191505050505050919291929050505061181c565b604051808215151515815260200191505060405180910390f35b3480156101fc57600080fd5b50610231600480360381019080803573ffffffffffffffffffffffffffffffffffffffff169060200190929190505050611efa565b604051808060200189815260200188815260200180602001806020018060200187815260200186815260200185810385528d818151815260200191508051906020019080838360005b8381101561029557808201518184015260208101905061027a565b50505050905090810190601f1680156102c25780820380516001836020036101000a031916815260200191505b5085810384528a818151815260200191508051906020019080838360005b838110156102fb5780820151818401526020810190506102e0565b50505050905090810190601f1680156103285780820380516001836020036101000a031916815260200191505b50858103835289818151815260200191508051906020019080838360005b83811015610361578082015181840152602081019050610346565b50505050905090810190601f16801561038e5780820380516001836020036101000a031916815260200191505b50858103825288818151815260200191508051906020019080838360005b838110156103c75780820151818401526020810190506103ac565b50505050905090810190601f1680156103f45780820380516001836020036101000a031916815260200191505b509c5050505050505050505050505060405180910390f35b34801561041857600080fd5b50610579600480360381019080803573ffffffffffffffffffffffffffffffffffffffff169060200190929190803590602001908201803590602001908080601f016020809104026020016040519081016040528093929190818152602001838380828437820191505050505050919291929080359060200190929190803590602001908201803590602001908080601f0160208091040260200160405190810160405280939291908181526020018383808284378201915050505050509192919290803590602001908201803590602001908080601f0160208091040260200160405190810160405280939291908181526020018383808284378201915050505050509192919290803590602001908201803590602001908080601f0160208091040260200160405190810160405280939291908181526020018383808284378201915050505050509192919290803590602001909291905050506121b1565b604051808215151515815260200191505060405180910390f35b34801561059f57600080fd5b5061071c600480360381019080803590602001908201803590602001908080601f016020809104026020016040519081016040528093929190818152602001838380828437820191505050505050919291929080359060200190929190803590602001908201803590602001908080601f0160208091040260200160405190810160405280939291908181526020018383808284378201915050505050509192919290803590602001908201803590602001908080601f0160208091040260200160405190810160405280939291908181526020018383808284378201915050505050509192919290803590602001908201803590602001908080601f0160208091040260200160405190810160405280939291908181526020018383808284378201915050505050509192919290803590602001908201803590602001908080601f0160208091040260200160405190810160405280939291908181526020018383808284378201915050505050509192919290505050612962565b604051808273ffffffffffffffffffffffffffffffffffffffff1673ffffffffffffffffffffffffffffffffffffffff16815260200191505060405180910390f35b34801561076a57600080fd5b5061079f600480360381019080803573ffffffffffffffffffffffffffffffffffffffff169060200190929190505050612d17565b604051808060200188815260200180602001806020018060200187815260200186815260200185810385528c818151815260200191508051906020019080838360005b838110156107fd5780820151818401526020810190506107e2565b50505050905090810190601f16801561082a5780820380516001836020036101000a031916815260200191505b5085810384528a818151815260200191508051906020019080838360005b83811015610863578082015181840152602081019050610848565b50505050905090810190601f1680156108905780820380516001836020036101000a031916815260200191505b50858103835289818151815260200191508051906020019080838360005b838110156108c95780820151818401526020810190506108ae565b50505050905090810190601f1680156108f65780820380516001836020036101000a031916815260200191505b50858103825288818151815260200191508051906020019080838360005b8381101561092f578082015181840152602081019050610914565b50505050905090810190601f16801561095c5780820380516001836020036101000a031916815260200191505b509b50505050505050505050505060405180910390f35b34801561097f57600080fd5b506109b4600480360381019080803573ffffffffffffffffffffffffffffffffffffffff169060200190929190505050612fbb565b6040518080602001828103825283818151815260200191508051906020019080838360005b838110156109f45780820151818401526020810190506109d9565b50505050905090810190601f168015610a215780820380516001836020036101000a031916815260200191505b509250505060405180910390f35b348015610a3b57600080fd5b50610be2600480360381019080803573ffffffffffffffffffffffffffffffffffffffff169060200190929190803590602001908201803590602001908080601f0160208091040260200160405190810160405280939291908181526020018383808284378201915050505050509192919290803590602001908201803590602001908080601f016020809104026020016040519081016040528093929190818152602001838380828437820191505050505050919291929080359060200190929190803590602001908201803590602001908080601f0160208091040260200160405190810160405280939291908181526020018383808284378201915050505050509192919290803590602001908201803590602001908080601f0160208091040260200160405190810160405280939291908181526020018383808284378201915050505050509192919290803590602001908201803590602001908080601f016020809104026020016040519081016040528093929190818152602001838380828437820191505050505050919291929080359060200190929190505050613115565b604051808215151515815260200191505060405180910390f35b348015610c0857600080fd5b50610c11613934565b005b348015610c1f57600080fd5b50610d8a600480360381019080803573ffffffffffffffffffffffffffffffffffffffff169060200190929190803590602001908201803590602001908080601f01602080910402602001604051908101604052809392919081815260200183838082843782019150505050505091929192908035906020019092919080359060200190929190803590602001908201803590602001908080601f0160208091040260200160405190810160405280939291908181526020018383808284378201915050505050509192919290803590602001908201803590602001908080601f0160208091040260200160405190810160405280939291908181526020018383808284378201915050505050509192919290803590602001908201803590602001908080601f016020809104026020016040519081016040528093929190818152602001838380828437820191505050505050919291929080359060200190929190505050613a36565b604051808215151515815260200191505060405180910390f35b348015610db057600080fd5b50610db96141f0565b604051808273ffffffffffffffffffffffffffffffffffffffff1673ffffffffffffffffffffffffffffffffffffffff16815260200191505060405180910390f35b348015610e0757600080fd5b50610e3c600480360381019080803573ffffffffffffffffffffffffffffffffffffffff169060200190929190505050614215565b604051808060200189815260200188815260200180602001806020018060200187815260200186815260200185810385528d818151815260200191508051906020019080838360005b83811015610ea0578082015181840152602081019050610e85565b50505050905090810190601f168015610ecd5780820380516001836020036101000a031916815260200191505b5085810384528a818151815260200191508051906020019080838360005b83811015610f06578082015181840152602081019050610eeb565b50505050905090810190601f168015610f335780820380516001836020036101000a031916815260200191505b50858103835289818151815260200191508051906020019080838360005b83811015610f6c578082015181840152602081019050610f51565b50505050905090810190601f168015610f995780820380516001836020036101000a031916815260200191505b50858103825288818151815260200191508051906020019080838360005b83811015610fd2578082015181840152602081019050610fb7565b50505050905090810190601f168015610fff5780820380516001836020036101000a031916815260200191505b509c5050505050505050505050505060405180910390f35b34801561102357600080fd5b50611058600480360381019080803573ffffffffffffffffffffffffffffffffffffffff1690602001909291905050506144cc565b604051808681526020018060200185815260200184815260200180602001838103835287818151815260200191508051906020019080838360005b838110156110ae578082015181840152602081019050611093565b50505050905090810190601f1680156110db5780820380516001836020036101000a031916815260200191505b50838103825284818151815260200191508051906020019080838360005b838110156111145780820151818401526020810190506110f9565b50505050905090810190601f1680156111415780820380516001836020036101000a031916815260200191505b5097505050505050505060405180910390f35b34801561116057600080fd5b506112cb600480360381019080803573ffffffffffffffffffffffffffffffffffffffff169060200190929190803590602001908201803590602001908080601f01602080910402602001604051908101604052809392919081815260200183838082843782019150505050505091929192908035906020019092919080359060200190929190803590602001908201803590602001908080601f0160208091040260200160405190810160405280939291908181526020018383808284378201915050505050509192919290803590602001908201803590602001908080601f0160208091040260200160405190810160405280939291908181526020018383808284378201915050505050509192919290803590602001908201803590602001908080601f0160208091040260200160405190810160405280939291908181526020018383808284378201915050505050509192919290803590602001909291905050506146bc565b604051808215151515815260200191505060405180910390f35b3480156112f157600080fd5b50611326600480360381019080803573ffffffffffffffffffffffffffffffffffffffff169060200190929190505050614e76565b60405180806020018060200189815260200180602001806020018060200188815260200187815260200186810386528e818151815260200191508051906020019080838360005b8381101561138857808201518184015260208101905061136d565b50505050905090810190601f1680156113b55780820380516001836020036101000a031916815260200191505b5086810385528d818151815260200191508051906020019080838360005b838110156113ee5780820151818401526020810190506113d3565b50505050905090810190601f16801561141b5780820380516001836020036101000a031916815260200191505b5086810384528b818151815260200191508051906020019080838360005b83811015611454578082015181840152602081019050611439565b50505050905090810190601f1680156114815780820380516001836020036101000a031916815260200191505b5086810383528a818151815260200191508051906020019080838360005b838110156114ba57808201518184015260208101905061149f565b50505050905090810190601f1680156114e75780820380516001836020036101000a031916815260200191505b50868103825289818151815260200191508051906020019080838360005b83811015611520578082015181840152602081019050611505565b50505050905090810190601f16801561154d5780820380516001836020036101000a031916815260200191505b509d505050505050505050505050505060405180910390f35b34801561157257600080fd5b506115a7600480360381019080803573ffffffffffffffffffffffffffffffffffffffff169060200190929190505050615172565b60405180806020018781526020018060200180602001806020018060200186810386528c818151815260200191508051906020019080838360005b838110156115fd5780820151818401526020810190506115e2565b50505050905090810190601f16801561162a5780820380516001836020036101000a031916815260200191505b5086810385528a818151815260200191508051906020019080838360005b83811015611663578082015181840152602081019050611648565b50505050905090810190601f1680156116905780820380516001836020036101000a031916815260200191505b50868103845289818151815260200191508051906020019080838360005b838110156116c95780820151818401526020810190506116ae565b50505050905090810190601f1680156116f65780820380516001836020036101000a031916815260200191505b50868103835288818151815260200191508051906020019080838360005b8381101561172f578082015181840152602081019050611714565b50505050905090810190601f16801561175c5780820380516001836020036101000a031916815260200191505b50868103825287818151815260200191508051906020019080838360005b8381101561179557808201518184015260208101905061177a565b50505050905090810190601f1680156117c25780820380516001836020036101000a031916815260200191505b509b50505050505050505050505060405180910390f35b3480156117e557600080fd5b5061181a600480360381019080803573ffffffffffffffffffffffffffffffffffffffff169060200190929190505050615443565b005b600080876040805190810160405280600681526020017f504841524d410000000000000000000000000000000000000000000000000000815250806040518082805190602001908083835b60208310151561188c5780518252602082019150602081019050602083039250611867565b6001836020036101000a038019825116818451168082178552505050505050905001915050604051809103902060001916600160009054906101000a900473ffffffffffffffffffffffffffffffffffffffff1673ffffffffffffffffffffffffffffffffffffffff166327820851336040518263ffffffff167c0100000000000000000000000000000000000000000000000000000000028152600401808273ffffffffffffffffffffffffffffffffffffffff1673ffffffffffffffffffffffffffffffffffffffff168152602001915050600060405180830381600087803b15801561197a57600080fd5b505af115801561198e573d6000803e3d6000fd5b505050506040513d6000823e3d601f19601f8201168201806040525060208110156119b857600080fd5b8101908080516401000000008111156119d057600080fd5b828101905060208101848111156119e657600080fd5b8151856001820283011164010000000082111715611a0357600080fd5b50509291905050506040518082805190602001908083835b602083101515611a405780518252602082019150602081019050602083039250611a1b565b6001836020036101000a038019825116818451168082178552505050505050905001915050604051809103902060001916141515611a7d57600080fd5b806040518082805190602001908083835b602083101515611ab35780518252602082019150602081019050602083039250611a8e565b6001836020036101000a038019825116818451168082178552505050505050905001915050604051809103902060001916600160009054906101000a900473ffffffffffffffffffffffffffffffffffffffff1673ffffffffffffffffffffffffffffffffffffffff16634d6b5e00846040518263ffffffff167c0100000000000000000000000000000000000000000000000000000000028152600401808273ffffffffffffffffffffffffffffffffffffffff1673ffffffffffffffffffffffffffffffffffffffff168152602001915050600060405180830381600087803b158015611ba157600080fd5b505af1158015611bb5573d6000803e3d6000fd5b505050506040513d6000823e3d601f19601f820116820180604052506020811015611bdf57600080fd5b810190808051640100000000811115611bf757600080fd5b82810190506020810184811115611c0d57600080fd5b8151856001820283011164010000000082111715611c2a57600080fd5b50509291905050506040518082805190602001908083835b602083101515611c675780518252602082019150602081019050602083039250611c42565b6001836020036101000a038019825116818451168082178552505050505050905001915050604051809103902060001916141515611ca457600080fd5b600160009054906101000a900473ffffffffffffffffffffffffffffffffffffffff1673ffffffffffffffffffffffffffffffffffffffff16638c3270568b8b8b8b8b8b6040518763ffffffff167c0100000000000000000000000000000000000000000000000000000000028152600401808773ffffffffffffffffffffffffffffffffffffffff1673ffffffffffffffffffffffffffffffffffffffff1681526020018681526020018060200185815260200184815260200180602001838103835287818151815260200191508051906020019080838360005b83811015611d9b578082015181840152602081019050611d80565b50505050905090810190601f168015611dc85780820380516001836020036101000a031916815260200191505b50838103825284818151815260200191508051906020019080838360005b83811015611e01578082015181840152602081019050611de6565b50505050905090810190601f168015611e2e5780820380516001836020036101000a031916815260200191505b5098505050505050505050602060405180830381600087803b158015611e5357600080fd5b505af1158015611e67573d6000803e3d6000fd5b505050506040513d6020811015611e7d57600080fd5b810190808051906020019092919050505092508973ffffffffffffffffffffffffffffffffffffffff163373ffffffffffffffffffffffffffffffffffffffff167faae79da5f45fcb0271c072e7b0e3d96725d88147fe3cb25a4a048750c13b6a4f60405160405180910390a38293505050509695505050505050565b60606000806060806060600080600160009054906101000a900473ffffffffffffffffffffffffffffffffffffffff1673ffffffffffffffffffffffffffffffffffffffff16631e92f5fc8a6040518263ffffffff167c0100000000000000000000000000000000000000000000000000000000028152600401808273ffffffffffffffffffffffffffffffffffffffff1673ffffffffffffffffffffffffffffffffffffffff168152602001915050600060405180830381600087803b158015611fc457600080fd5b505af1158015611fd8573d6000803e3d6000fd5b505050506040513d6000823e3d601f19601f8201168201806040525061010081101561200357600080fd5b81019080805164010000000081111561201b57600080fd5b8281019050602081018481111561203157600080fd5b815185600182028301116401000000008211171561204e57600080fd5b50509291906020018051906020019092919080519060200190929190805164010000000081111561207e57600080fd5b8281019050602081018481111561209457600080fd5b81518560018202830111640100000000821117156120b157600080fd5b505092919060200180516401000000008111156120cd57600080fd5b828101905060208101848111156120e357600080fd5b815185600182028301116401000000008211171561210057600080fd5b5050929190602001805164010000000081111561211c57600080fd5b8281019050602081018481111561213257600080fd5b815185600182028301116401000000008211171561214f57600080fd5b50509291906020018051906020019092919080519060200190929190505050809850819950829a50839b50849c50859d50869e50879f505050505050505050878787878787878797509750975097509750975097509750919395975091939597565b600080886040805190810160405280600c81526020017f4d414e5546414354555245520000000000000000000000000000000000000000815250806040518082805190602001908083835b60208310151561222157805182526020820191506020810190506020830392506121fc565b6001836020036101000a038019825116818451168082178552505050505050905001915050604051809103902060001916600160009054906101000a900473ffffffffffffffffffffffffffffffffffffffff1673ffffffffffffffffffffffffffffffffffffffff166327820851336040518263ffffffff167c0100000000000000000000000000000000000000000000000000000000028152600401808273ffffffffffffffffffffffffffffffffffffffff1673ffffffffffffffffffffffffffffffffffffffff168152602001915050600060405180830381600087803b15801561230f57600080fd5b505af1158015612323573d6000803e3d6000fd5b505050506040513d6000823e3d601f19601f82011682018060405250602081101561234d57600080fd5b81019080805164010000000081111561236557600080fd5b8281019050602081018481111561237b57600080fd5b815185600182028301116401000000008211171561239857600080fd5b50509291905050506040518082805190602001908083835b6020831015156123d557805182526020820191506020810190506020830392506123b0565b6001836020036101000a03801982511681845116808217855250505050505090500191505060405180910390206000191614151561241257600080fd5b806040518082805190602001908083835b6020831015156124485780518252602082019150602081019050602083039250612423565b6001836020036101000a038019825116818451168082178552505050505050905001915050604051809103902060001916600160009054906101000a900473ffffffffffffffffffffffffffffffffffffffff1673ffffffffffffffffffffffffffffffffffffffff16634d6b5e00846040518263ffffffff167c0100000000000000000000000000000000000000000000000000000000028152600401808273ffffffffffffffffffffffffffffffffffffffff1673ffffffffffffffffffffffffffffffffffffffff168152602001915050600060405180830381600087803b15801561253657600080fd5b505af115801561254a573d6000803e3d6000fd5b505050506040513d6000823e3d601f19601f82011682018060405250602081101561257457600080fd5b81019080805164010000000081111561258c57600080fd5b828101905060208101848111156125a257600080fd5b81518560018202830111640100000000821117156125bf57600080fd5b50509291905050506040518082805190602001908083835b6020831015156125fc57805182526020820191506020810190506020830392506125d7565b6001836020036101000a03801982511681845116808217855250505050505090500191505060405180910390206000191614151561263957600080fd5b600160009054906101000a900473ffffffffffffffffffffffffffffffffffffffff1673ffffffffffffffffffffffffffffffffffffffff1663e05930518c8c8c8c8c8c8c6040518863ffffffff167c0100000000000000000000000000000000000000000000000000000000028152600401808873ffffffffffffffffffffffffffffffffffffffff1673ffffffffffffffffffffffffffffffffffffffff1681526020018060200187815260200180602001806020018060200186815260200185810385528b818151815260200191508051906020019080838360005b83811015612733578082015181840152602081019050612718565b50505050905090810190601f1680156127605780820380516001836020036101000a031916815260200191505b50858103845289818151815260200191508051906020019080838360005b8381101561279957808201518184015260208101905061277e565b50505050905090810190601f1680156127c65780820380516001836020036101000a031916815260200191505b50858103835288818151815260200191508051906020019080838360005b838110156127ff5780820151818401526020810190506127e4565b50505050905090810190601f16801561282c5780820380516001836020036101000a031916815260200191505b50858103825287818151815260200191508051906020019080838360005b8381101561286557808201518184015260208101905061284a565b50505050905090810190601f1680156128925780820380516001836020036101000a031916815260200191505b509b505050505050505050505050602060405180830381600087803b1580156128ba57600080fd5b505af11580156128ce573d6000803e3d6000fd5b505050506040513d60208110156128e457600080fd5b810190808051906020019092919050505092508a73ffffffffffffffffffffffffffffffffffffffff163373ffffffffffffffffffffffffffffffffffffffff167f2ba16cef6ef755e2a89722633c5ee79e9fa92529a645bdda29fcc666be3ffdd060405160405180910390a3829350505050979650505050505050565b6000806000809054906101000a900473ffffffffffffffffffffffffffffffffffffffff1673ffffffffffffffffffffffffffffffffffffffff163373ffffffffffffffffffffffffffffffffffffffff161415156129c057600080fd5b600160009054906101000a900473ffffffffffffffffffffffffffffffffffffffff1673ffffffffffffffffffffffffffffffffffffffff16635b9ffad88989898989896040518763ffffffff167c010000000000000000000000000000000000000000000000000000000002815260040180806020018781526020018060200180602001806020018060200186810386528c818151815260200191508051906020019080838360005b83811015612a85578082015181840152602081019050612a6a565b50505050905090810190601f168015612ab25780820380516001836020036101000a031916815260200191505b5086810385528a818151815260200191508051906020019080838360005b83811015612aeb578082015181840152602081019050612ad0565b50505050905090810190601f168015612b185780820380516001836020036101000a031916815260200191505b50868103845289818151815260200191508051906020019080838360005b83811015612b51578082015181840152602081019050612b36565b50505050905090810190601f168015612b7e5780820380516001836020036101000a031916815260200191505b50868103835288818151815260200191508051906020019080838360005b83811015612bb7578082015181840152602081019050612b9c565b50505050905090810190601f168015612be45780820380516001836020036101000a031916815260200191505b50868103825287818151815260200191508051906020019080838360005b83811015612c1d578082015181840152602081019050612c02565b50505050905090810190601f168015612c4a5780820380516001836020036101000a031916815260200191505b509b505050505050505050505050602060405180830381600087803b158015612c7257600080fd5b505af1158015612c86573d6000803e3d6000fd5b505050506040513d6020811015612c9c57600080fd5b810190808051906020019092919050505090508073ffffffffffffffffffffffffffffffffffffffff163373ffffffffffffffffffffffffffffffffffffffff167f64f477f05c31d5d9676af2929e5bb0d758ff710e425da6fd959c80e28b32bded60405160405180910390a3809150509695505050505050565b606060006060806060600080600160009054906101000a900473ffffffffffffffffffffffffffffffffffffffff1673ffffffffffffffffffffffffffffffffffffffff166335057b6b896040518263ffffffff167c0100000000000000000000000000000000000000000000000000000000028152600401808273ffffffffffffffffffffffffffffffffffffffff1673ffffffffffffffffffffffffffffffffffffffff168152602001915050600060405180830381600087803b158015612de057600080fd5b505af1158015612df4573d6000803e3d6000fd5b505050506040513d6000823e3d601f19601f8201168201806040525060e0811015612e1e57600080fd5b810190808051640100000000811115612e3657600080fd5b82810190506020810184811115612e4c57600080fd5b8151856001820283011164010000000082111715612e6957600080fd5b5050929190602001805190602001909291908051640100000000811115612e8f57600080fd5b82810190506020810184811115612ea557600080fd5b8151856001820283011164010000000082111715612ec257600080fd5b50509291906020018051640100000000811115612ede57600080fd5b82810190506020810184811115612ef457600080fd5b8151856001820283011164010000000082111715612f1157600080fd5b50509291906020018051640100000000811115612f2d57600080fd5b82810190506020810184811115612f4357600080fd5b8151856001820283011164010000000082111715612f6057600080fd5b50509291906020018051906020019092919080519060200190929190505050809750819850829950839a50849b50859c50869d5050505050505050868686868686869650965096509650965096509650919395979092949650565b6060600160009054906101000a900473ffffffffffffffffffffffffffffffffffffffff1673ffffffffffffffffffffffffffffffffffffffff16634d6b5e00836040518263ffffffff167c0100000000000000000000000000000000000000000000000000000000028152600401808273ffffffffffffffffffffffffffffffffffffffff1673ffffffffffffffffffffffffffffffffffffffff168152602001915050600060405180830381600087803b15801561307a57600080fd5b505af115801561308e573d6000803e3d6000fd5b505050506040513d6000823e3d601f19601f8201168201806040525060208110156130b857600080fd5b8101908080516401000000008111156130d057600080fd5b828101905060208101848111156130e657600080fd5b815185600182028301116401000000008211171561310357600080fd5b50509291905050509050809050919050565b600080896040805190810160405280600881526020017f535550504c494552000000000000000000000000000000000000000000000000815250806040518082805190602001908083835b6020831015156131855780518252602082019150602081019050602083039250613160565b6001836020036101000a038019825116818451168082178552505050505050905001915050604051809103902060001916600160009054906101000a900473ffffffffffffffffffffffffffffffffffffffff1673ffffffffffffffffffffffffffffffffffffffff166327820851336040518263ffffffff167c0100000000000000000000000000000000000000000000000000000000028152600401808273ffffffffffffffffffffffffffffffffffffffff1673ffffffffffffffffffffffffffffffffffffffff168152602001915050600060405180830381600087803b15801561327357600080fd5b505af1158015613287573d6000803e3d6000fd5b505050506040513d6000823e3d601f19601f8201168201806040525060208110156132b157600080fd5b8101908080516401000000008111156132c957600080fd5b828101905060208101848111156132df57600080fd5b81518560018202830111640100000000821117156132fc57600080fd5b50509291905050506040518082805190602001908083835b6020831015156133395780518252602082019150602081019050602083039250613314565b6001836020036101000a03801982511681845116808217855250505050505090500191505060405180910390206000191614151561337657600080fd5b806040518082805190602001908083835b6020831015156133ac5780518252602082019150602081019050602083039250613387565b6001836020036101000a038019825116818451168082178552505050505050905001915050604051809103902060001916600160009054906101000a900473ffffffffffffffffffffffffffffffffffffffff1673ffffffffffffffffffffffffffffffffffffffff16634d6b5e00846040518263ffffffff167c0100000000000000000000000000000000000000000000000000000000028152600401808273ffffffffffffffffffffffffffffffffffffffff1673ffffffffffffffffffffffffffffffffffffffff168152602001915050600060405180830381600087803b15801561349a57600080fd5b505af11580156134ae573d6000803e3d6000fd5b505050506040513d6000823e3d601f19601f8201168201806040525060208110156134d857600080fd5b8101908080516401000000008111156134f057600080fd5b8281019050602081018481111561350657600080fd5b815185600182028301116401000000008211171561352357600080fd5b50509291905050506040518082805190602001908083835b602083101515613560578051825260208201915060208101905060208303925061353b565b6001836020036101000a03801982511681845116808217855250505050505090500191505060405180910390206000191614151561359d57600080fd5b600160009054906101000a900473ffffffffffffffffffffffffffffffffffffffff1673ffffffffffffffffffffffffffffffffffffffff1663f831a8c28d8d8d8d8d8d8d8d6040518963ffffffff167c0100000000000000000000000000000000000000000000000000000000028152600401808973ffffffffffffffffffffffffffffffffffffffff1673ffffffffffffffffffffffffffffffffffffffff168152602001806020018060200188815260200180602001806020018060200187815260200186810386528d818151815260200191508051906020019080838360005b8381101561369c578082015181840152602081019050613681565b50505050905090810190601f1680156136c95780820380516001836020036101000a031916815260200191505b5086810385528c818151815260200191508051906020019080838360005b838110156137025780820151818401526020810190506136e7565b50505050905090810190601f16801561372f5780820380516001836020036101000a031916815260200191505b5086810384528a818151815260200191508051906020019080838360005b8381101561376857808201518184015260208101905061374d565b50505050905090810190601f1680156137955780820380516001836020036101000a031916815260200191505b50868103835289818151815260200191508051906020019080838360005b838110156137ce5780820151818401526020810190506137b3565b50505050905090810190601f1680156137fb5780820380516001836020036101000a031916815260200191505b50868103825288818151815260200191508051906020019080838360005b83811015613834578082015181840152602081019050613819565b50505050905090810190601f1680156138615780820380516001836020036101000a031916815260200191505b509d5050505050505050505050505050602060405180830381600087803b15801561388b57600080fd5b505af115801561389f573d6000803e3d6000fd5b505050506040513d60208110156138b557600080fd5b810190808051906020019092919050505092508b73ffffffffffffffffffffffffffffffffffffffff163373ffffffffffffffffffffffffffffffffffffffff167f983855810e765909f419e3dd4ff11ae693bf1d747dbbf910c5a322dffbeecc6560405160405180910390a382935050505098975050505050505050565b6000809054906101000a900473ffffffffffffffffffffffffffffffffffffffff1673ffffffffffffffffffffffffffffffffffffffff163373ffffffffffffffffffffffffffffffffffffffff1614151561398f57600080fd5b6000809054906101000a900473ffffffffffffffffffffffffffffffffffffffff1673ffffffffffffffffffffffffffffffffffffffff167ff8df31144d9c2f0f6b59d69b8b98abd5459d07f2742c4df920b25aae33c6482060405160405180910390a260008060006101000a81548173ffffffffffffffffffffffffffffffffffffffff021916908373ffffffffffffffffffffffffffffffffffffffff160217905550565b600080896040805190810160405280600a81526020017f57484f4c4553414c455200000000000000000000000000000000000000000000815250806040518082805190602001908083835b602083101515613aa65780518252602082019150602081019050602083039250613a81565b6001836020036101000a038019825116818451168082178552505050505050905001915050604051809103902060001916600160009054906101000a900473ffffffffffffffffffffffffffffffffffffffff1673ffffffffffffffffffffffffffffffffffffffff166327820851336040518263ffffffff167c0100000000000000000000000000000000000000000000000000000000028152600401808273ffffffffffffffffffffffffffffffffffffffff1673ffffffffffffffffffffffffffffffffffffffff168152602001915050600060405180830381600087803b158015613b9457600080fd5b505af1158015613ba8573d6000803e3d6000fd5b505050506040513d6000823e3d601f19601f820116820180604052506020811015613bd257600080fd5b810190808051640100000000811115613bea57600080fd5b82810190506020810184811115613c0057600080fd5b8151856001820283011164010000000082111715613c1d57600080fd5b50509291905050506040518082805190602001908083835b602083101515613c5a5780518252602082019150602081019050602083039250613c35565b6001836020036101000a038019825116818451168082178552505050505050905001915050604051809103902060001916141515613c9757600080fd5b806040518082805190602001908083835b602083101515613ccd5780518252602082019150602081019050602083039250613ca8565b6001836020036101000a038019825116818451168082178552505050505050905001915050604051809103902060001916600160009054906101000a900473ffffffffffffffffffffffffffffffffffffffff1673ffffffffffffffffffffffffffffffffffffffff16634d6b5e00846040518263ffffffff167c0100000000000000000000000000000000000000000000000000000000028152600401808273ffffffffffffffffffffffffffffffffffffffff1673ffffffffffffffffffffffffffffffffffffffff168152602001915050600060405180830381600087803b158015613dbb57600080fd5b505af1158015613dcf573d6000803e3d6000fd5b505050506040513d6000823e3d601f19601f820116820180604052506020811015613df957600080fd5b810190808051640100000000811115613e1157600080fd5b82810190506020810184811115613e2757600080fd5b8151856001820283011164010000000082111715613e4457600080fd5b50509291905050506040518082805190602001908083835b602083101515613e815780518252602082019150602081019050602083039250613e5c565b6001836020036101000a038019825116818451168082178552505050505050905001915050604051809103902060001916141515613ebe57600080fd5b600160009054906101000a900473ffffffffffffffffffffffffffffffffffffffff1673ffffffffffffffffffffffffffffffffffffffff1663bd418a9d8d8d8d8d8d8d8d8d6040518963ffffffff167c0100000000000000000000000000000000000000000000000000000000028152600401808973ffffffffffffffffffffffffffffffffffffffff1673ffffffffffffffffffffffffffffffffffffffff1681526020018060200188815260200187815260200180602001806020018060200186815260200185810385528c818151815260200191508051906020019080838360005b83811015613fbf578082015181840152602081019050613fa4565b50505050905090810190601f168015613fec5780820380516001836020036101000a031916815260200191505b50858103845289818151815260200191508051906020019080838360005b8381101561402557808201518184015260208101905061400a565b50505050905090810190601f1680156140525780820380516001836020036101000a031916815260200191505b50858103835288818151815260200191508051906020019080838360005b8381101561408b578082015181840152602081019050614070565b50505050905090810190601f1680156140b85780820380516001836020036101000a031916815260200191505b50858103825287818151815260200191508051906020019080838360005b838110156140f15780820151818401526020810190506140d6565b50505050905090810190601f16801561411e5780820380516001836020036101000a031916815260200191505b509c50505050505050505050505050602060405180830381600087803b15801561414757600080fd5b505af115801561415b573d6000803e3d6000fd5b505050506040513d602081101561417157600080fd5b810190808051906020019092919050505092508b73ffffffffffffffffffffffffffffffffffffffff163373ffffffffffffffffffffffffffffffffffffffff167fa027fa25adab7b6cc43a3c210d9e10e75bfa7ebec27771552398ec13afc195a060405160405180910390a382935050505098975050505050505050565b6000809054906101000a900473ffffffffffffffffffffffffffffffffffffffff1681565b60606000806060806060600080600160009054906101000a900473ffffffffffffffffffffffffffffffffffffffff1673ffffffffffffffffffffffffffffffffffffffff1663b72f17e78a6040518263ffffffff167c0100000000000000000000000000000000000000000000000000000000028152600401808273ffffffffffffffffffffffffffffffffffffffff1673ffffffffffffffffffffffffffffffffffffffff168152602001915050600060405180830381600087803b1580156142df57600080fd5b505af11580156142f3573d6000803e3d6000fd5b505050506040513d6000823e3d601f19601f8201168201806040525061010081101561431e57600080fd5b81019080805164010000000081111561433657600080fd5b8281019050602081018481111561434c57600080fd5b815185600182028301116401000000008211171561436957600080fd5b50509291906020018051906020019092919080519060200190929190805164010000000081111561439957600080fd5b828101905060208101848111156143af57600080fd5b81518560018202830111640100000000821117156143cc57600080fd5b505092919060200180516401000000008111156143e857600080fd5b828101905060208101848111156143fe57600080fd5b815185600182028301116401000000008211171561441b57600080fd5b5050929190602001805164010000000081111561443757600080fd5b8281019050602081018481111561444d57600080fd5b815185600182028301116401000000008211171561446a57600080fd5b50509291906020018051906020019092919080519060200190929190505050809850819950829a50839b50849c50859d50869e50879f505050505050505050878787878787878797509750975097509750975097509750919395975091939597565b600060606000806060600160009054906101000a900473ffffffffffffffffffffffffffffffffffffffff1673ffffffffffffffffffffffffffffffffffffffff1663b7a08836876040518263ffffffff167c0100000000000000000000000000000000000000000000000000000000028152600401808273ffffffffffffffffffffffffffffffffffffffff1673ffffffffffffffffffffffffffffffffffffffff168152602001915050600060405180830381600087803b15801561459257600080fd5b505af11580156145a6573d6000803e3d6000fd5b505050506040513d6000823e3d601f19601f8201168201806040525060a08110156145d057600080fd5b810190808051906020019092919080516401000000008111156145f257600080fd5b8281019050602081018481111561460857600080fd5b815185600182028301116401000000008211171561462557600080fd5b50509291906020018051906020019092919080519060200190929190805164010000000081111561465557600080fd5b8281019050602081018481111561466b57600080fd5b815185600182028301116401000000008211171561468857600080fd5b5050929190505050809550819650829750839850849950505050505084848484849450945094509450945091939590929450565b600080896040805190810160405280600b81526020017f4449535452494255544552000000000000000000000000000000000000000000815250806040518082805190602001908083835b60208310151561472c5780518252602082019150602081019050602083039250614707565b6001836020036101000a038019825116818451168082178552505050505050905001915050604051809103902060001916600160009054906101000a900473ffffffffffffffffffffffffffffffffffffffff1673ffffffffffffffffffffffffffffffffffffffff166327820851336040518263ffffffff167c0100000000000000000000000000000000000000000000000000000000028152600401808273ffffffffffffffffffffffffffffffffffffffff1673ffffffffffffffffffffffffffffffffffffffff168152602001915050600060405180830381600087803b15801561481a57600080fd5b505af115801561482e573d6000803e3d6000fd5b505050506040513d6000823e3d601f19601f82011682018060405250602081101561485857600080fd5b81019080805164010000000081111561487057600080fd5b8281019050602081018481111561488657600080fd5b81518560018202830111640100000000821117156148a357600080fd5b50509291905050506040518082805190602001908083835b6020831015156148e057805182526020820191506020810190506020830392506148bb565b6001836020036101000a03801982511681845116808217855250505050505090500191505060405180910390206000191614151561491d57600080fd5b806040518082805190602001908083835b602083101515614953578051825260208201915060208101905060208303925061492e565b6001836020036101000a038019825116818451168082178552505050505050905001915050604051809103902060001916600160009054906101000a900473ffffffffffffffffffffffffffffffffffffffff1673ffffffffffffffffffffffffffffffffffffffff16634d6b5e00846040518263ffffffff167c0100000000000000000000000000000000000000000000000000000000028152600401808273ffffffffffffffffffffffffffffffffffffffff1673ffffffffffffffffffffffffffffffffffffffff168152602001915050600060405180830381600087803b158015614a4157600080fd5b505af1158015614a55573d6000803e3d6000fd5b505050506040513d6000823e3d601f19601f820116820180604052506020811015614a7f57600080fd5b810190808051640100000000811115614a9757600080fd5b82810190506020810184811115614aad57600080fd5b8151856001820283011164010000000082111715614aca57600080fd5b50509291905050506040518082805190602001908083835b602083101515614b075780518252602082019150602081019050602083039250614ae2565b6001836020036101000a038019825116818451168082178552505050505050905001915050604051809103902060001916141515614b4457600080fd5b600160009054906101000a900473ffffffffffffffffffffffffffffffffffffffff1673ffffffffffffffffffffffffffffffffffffffff1663939dd2538d8d8d8d8d8d8d8d6040518963ffffffff167c0100000000000000000000000000000000000000000000000000000000028152600401808973ffffffffffffffffffffffffffffffffffffffff1673ffffffffffffffffffffffffffffffffffffffff1681526020018060200188815260200187815260200180602001806020018060200186815260200185810385528c818151815260200191508051906020019080838360005b83811015614c45578082015181840152602081019050614c2a565b50505050905090810190601f168015614c725780820380516001836020036101000a031916815260200191505b50858103845289818151815260200191508051906020019080838360005b83811015614cab578082015181840152602081019050614c90565b50505050905090810190601f168015614cd85780820380516001836020036101000a031916815260200191505b50858103835288818151815260200191508051906020019080838360005b83811015614d11578082015181840152602081019050614cf6565b50505050905090810190601f168015614d3e5780820380516001836020036101000a031916815260200191505b50858103825287818151815260200191508051906020019080838360005b83811015614d77578082015181840152602081019050614d5c565b50505050905090810190601f168015614da45780820380516001836020036101000a031916815260200191505b509c50505050505050505050505050602060405180830381600087803b158015614dcd57600080fd5b505af1158015614de1573d6000803e3d6000fd5b505050506040513d6020811015614df757600080fd5b810190808051906020019092919050505092508b73ffffffffffffffffffffffffffffffffffffffff163373ffffffffffffffffffffffffffffffffffffffff167fd5f77c98a37b9ca3a686659095a8956e7279e67c5b77ac4b38e77108f316e7ed60405160405180910390a382935050505098975050505050505050565b60608060006060806060600080600160009054906101000a900473ffffffffffffffffffffffffffffffffffffffff1673ffffffffffffffffffffffffffffffffffffffff1663d7d0eb878a6040518263ffffffff167c0100000000000000000000000000000000000000000000000000000000028152600401808273ffffffffffffffffffffffffffffffffffffffff1673ffffffffffffffffffffffffffffffffffffffff168152602001915050600060405180830381600087803b158015614f4057600080fd5b505af1158015614f54573d6000803e3d6000fd5b505050506040513d6000823e3d601f19601f82011682018060405250610100811015614f7f57600080fd5b810190808051640100000000811115614f9757600080fd5b82810190506020810184811115614fad57600080fd5b8151856001820283011164010000000082111715614fca57600080fd5b50509291906020018051640100000000811115614fe657600080fd5b82810190506020810184811115614ffc57600080fd5b815185600182028301116401000000008211171561501957600080fd5b505092919060200180519060200190929190805164010000000081111561503f57600080fd5b8281019050602081018481111561505557600080fd5b815185600182028301116401000000008211171561507257600080fd5b5050929190602001805164010000000081111561508e57600080fd5b828101905060208101848111156150a457600080fd5b81518560018202830111640100000000821117156150c157600080fd5b505092919060200180516401000000008111156150dd57600080fd5b828101905060208101848111156150f357600080fd5b815185600182028301116401000000008211171561511057600080fd5b50509291906020018051906020019092919080519060200190929190505050809850819950829a50839b50849c50859d50869e50879f505050505050505050878787878787878797509750975097509750975097509750919395975091939597565b60606000606080606080600160009054906101000a900473ffffffffffffffffffffffffffffffffffffffff1673ffffffffffffffffffffffffffffffffffffffff1663f2997d76886040518263ffffffff167c0100000000000000000000000000000000000000000000000000000000028152600401808273ffffffffffffffffffffffffffffffffffffffff1673ffffffffffffffffffffffffffffffffffffffff168152602001915050600060405180830381600087803b15801561523957600080fd5b505af115801561524d573d6000803e3d6000fd5b505050506040513d6000823e3d601f19601f8201168201806040525060c081101561527757600080fd5b81019080805164010000000081111561528f57600080fd5b828101905060208101848111156152a557600080fd5b81518560018202830111640100000000821117156152c257600080fd5b50509291906020018051906020019092919080516401000000008111156152e857600080fd5b828101905060208101848111156152fe57600080fd5b815185600182028301116401000000008211171561531b57600080fd5b5050929190602001805164010000000081111561533757600080fd5b8281019050602081018481111561534d57600080fd5b815185600182028301116401000000008211171561536a57600080fd5b5050929190602001805164010000000081111561538657600080fd5b8281019050602081018481111561539c57600080fd5b81518560018202830111640100000000821117156153b957600080fd5b505092919060200180516401000000008111156153d557600080fd5b828101905060208101848111156153eb57600080fd5b815185600182028301116401000000008211171561540857600080fd5b5050929190505050809650819750829850839950849a50859b5050505050505085858585858595509550955095509550955091939550919395565b6000809054906101000a900473ffffffffffffffffffffffffffffffffffffffff1673ffffffffffffffffffffffffffffffffffffffff163373ffffffffffffffffffffffffffffffffffffffff1614151561549e57600080fd5b600073ffffffffffffffffffffffffffffffffffffffff168173ffffffffffffffffffffffffffffffffffffffff16141515156154da57600080fd5b8073ffffffffffffffffffffffffffffffffffffffff166000809054906101000a900473ffffffffffffffffffffffffffffffffffffffff1673ffffffffffffffffffffffffffffffffffffffff167f8be0079c531659141344cd1fd0a4f28419497f9722a3daafe3b4186f6b6457e060405160405180910390a3806000806101000a81548173ffffffffffffffffffffffffffffffffffffffff021916908373ffffffffffffffffffffffffffffffffffffffff160217905550505600a165627a7a72305820eea7ac8eeb183453d4a86a993957e7c1067b1d5a5e849e35febb5de941c708580029",
  "source": "pragma solidity ^0.4.23;\r\nimport \"./SupplyChainStorage.sol\";\r\nimport \"./Ownable.sol\";\r\n\r\ncontract VaccineSupplyChain is Ownable\r\n{\r\n  \r\n    event CreateVaccineBatch(address indexed user, address indexed batchNo);\r\n    event DoneSupplying(address indexed user, address indexed batchNo);\r\n    event DoneManufacturing(address indexed user, address indexed batchNo);\r\n    event DoneWholesaling(address indexed user, address indexed batchNo);\r\n    event DoneDistribution(address indexed user, address indexed batchNo);\r\n    event DonePharmaDelivery(address indexed user, address indexed batchNo);\r\n\r\n    \r\n    /*Modifier*/\r\n    modifier isValidPerformer(address batchNo, string role) {\r\n    \r\n        require(keccak256(supplyChainStorage.getUserRole(msg.sender)) == keccak256(role));\r\n        require(keccak256(supplyChainStorage.getNextAction(batchNo)) == keccak256(role));\r\n        _;\r\n    }\r\n    \r\n    /* Storage Variables */    \r\n    SupplyChainStorage supplyChainStorage;\r\n    \r\n    constructor(address _supplyChainAddress) public {\r\n        supplyChainStorage = SupplyChainStorage(_supplyChainAddress);\r\n    }\r\n    \r\n    \r\n    /* Get Next Action  */    \r\n    function getNextAction(address _batchNo) public view returns(string action)\r\n    {\r\n       (action) = supplyChainStorage.getNextAction(_batchNo);\r\n       return (action);\r\n    }\r\n    \r\n\r\n    /* get Batch Details */\r\n    function getBasicDetails(address _batchNo) public view returns (string batchDescription,\r\n                                                                    uint256 quantity,\r\n                                                                    string supplierAddress,\r\n                                                                    string manufacturerAddress,\r\n                                                                    string wholesalerAddress,\r\n                                                                    string distributerAddress) {\r\n        /* Call Storage Contract */\r\n        (batchDescription, quantity, supplierAddress, manufacturerAddress, wholesalerAddress, distributerAddress) = supplyChainStorage.getBasicDetails(_batchNo);  \r\n        return (batchDescription, quantity, supplierAddress, manufacturerAddress, wholesalerAddress, distributerAddress);\r\n    }\r\n\r\n    /* Add Batch details */\r\n    function addBasicDetails(string _batchDescription,\r\n                             uint256 _quantity,\r\n                             string _supplierAddress,\r\n                             string _manufacturerAddress,\r\n                             string _wholesalerAddress,\r\n                             string _distributerAddress\r\n                            ) public onlyOwner returns(address) {\r\n    \r\n        address batchNo = supplyChainStorage.setBasicDetails(_batchDescription,\r\n                                                            _quantity,\r\n                                                            _supplierAddress,\r\n                                                            _manufacturerAddress,\r\n                                                            _wholesalerAddress,\r\n                                                            _distributerAddress);\r\n        \r\n        emit CreateVaccineBatch(msg.sender, batchNo); \r\n        \r\n        return (batchNo);\r\n    }                            \r\n    \r\n    /* get Supplier Deatails */\r\n    function getSupplierData(address _batchNo) public view returns (string rawMaterials,string description,uint256 quantity,string shipperName,string recieverAddress,\r\n                                                                    string receiverName,uint256 dispatchDateTime,uint256 cost) {\r\n        /* Call Storage Contract */\r\n        (rawMaterials, description, quantity, shipperName, recieverAddress, receiverName, dispatchDateTime, cost) = supplyChainStorage.getSupplierData(_batchNo);  \r\n        return (rawMaterials, description, quantity, shipperName, recieverAddress, receiverName, dispatchDateTime, cost);\r\n    }\r\n    \r\n    /* add Supplier data */\r\n    function updateSupplierData(address _batchNo,\r\n                                    string _rawMaterials,\r\n                                    string _description,\r\n                                    uint256 _quantity,\r\n                                    string _shipperName,\r\n                                    string _recieverAddress,\r\n                                    string _receiverName,\r\n                                    uint256 _cost) \r\n                                public isValidPerformer(_batchNo,'SUPPLIER') returns(bool) {\r\n        /* Call Storage Contract */\r\n        bool status = supplyChainStorage.setSupplierData(_batchNo, _rawMaterials, _description, _quantity, _shipperName, _recieverAddress, _receiverName, _cost);  \r\n        emit DoneSupplying(msg.sender, _batchNo);\r\n        return (status);\r\n    }\r\n\r\n    /* get manufacturer data */\r\n    function getManufacturerData(address _batchNo) public view returns (string description,uint256 quantity,\r\n                                                                                    string shipperName,\r\n                                                                                    string recieverAddress,\r\n                                                                                    string receiverName,\r\n                                                                                    uint256 dispatchDateTime,\r\n                                                                                    uint256 cost) {\r\n        /* Call Storage Contract */\r\n        (description, quantity, shipperName, recieverAddress, receiverName, dispatchDateTime, cost) =  supplyChainStorage.getManufacturerData(_batchNo);  \r\n        return (description, quantity, shipperName, recieverAddress, receiverName, dispatchDateTime, cost);\r\n    }\r\n    \r\n    /* Update Manufacturer Data */\r\n    function updateManufacturerData(address _batchNo,\r\n                                string _description,\r\n                              uint256 _quantity,\r\n                              string _shipperName,\r\n                              string _recieverAddress,\r\n                              string _receiverName,\r\n                              uint256 _cost) \r\n                                public isValidPerformer(_batchNo,'MANUFACTURER') returns(bool) {\r\n                                    \r\n        /* Call Storage Contract */\r\n        bool status = supplyChainStorage.setManufacturerData(_batchNo, _description, _quantity, _shipperName, _recieverAddress, _receiverName, _cost);  \r\n        \r\n        emit DoneManufacturing(msg.sender, _batchNo);\r\n        return (status);\r\n    }\r\n    \r\n    /* get Wholesaler Data */\r\n    function getWholesalerData(address _batchNo) public view returns (string description,\r\n                                                                                uint256 quantity,\r\n                                                                                uint256 receivedDateTime,\r\n                                                                                string shipperName,\r\n                                                                                string recieverAddress,\r\n                                                                                string receiverName,\r\n                                                                                uint256 dispatchDateTime,\r\n                                                                                uint256 cost) {\r\n        /* Call Storage Contract */\r\n       (description,\r\n        quantity,\r\n        receivedDateTime,\r\n        shipperName,\r\n        recieverAddress,\r\n        receiverName,\r\n        dispatchDateTime,\r\n        cost) =  supplyChainStorage.getWholesalerData(_batchNo);  \r\n        \r\n        return (description,\r\n        quantity,\r\n        receivedDateTime,\r\n        shipperName,\r\n        recieverAddress,\r\n        receiverName,\r\n        dispatchDateTime,\r\n        cost);\r\n    }\r\n    \r\n    /* update Wholesaler Data */\r\n    function updateWholesalerData(address _batchNo,\r\n                                string _description,\r\n                            uint256 _quantity,\r\n                            uint256 _receivedDateTime,\r\n                            string _shipperName,\r\n                            string _recieverAddress,\r\n                            string _receiverName,\r\n                            uint256 _cost) \r\n                            public isValidPerformer(_batchNo,'WHOLESALER') returns(bool) {\r\n                                    \r\n        /* Call Storage Contract */\r\n        bool status = supplyChainStorage.setWholesalerData(_batchNo, _description, _quantity, _receivedDateTime,_shipperName, _recieverAddress,_receiverName, _cost);  \r\n        \r\n        emit DoneWholesaling(msg.sender, _batchNo);\r\n        return (status);\r\n    }\r\n    \r\n    /* get Distributor data */\r\n    function getDistributerData(address _batchNo) public view returns (string description,\r\n                                                                                uint256 quantity,\r\n                                                                                uint256 receivedDateTime,\r\n                                                                                string shipperName,\r\n                                                                                string recieverAddress,\r\n                                                                                string receiverName,\r\n                                                                                uint256 dispatchDateTime,\r\n                                                                                uint256 cost) {\r\n        /* Call Storage Contract */\r\n        (description,\r\n         quantity,\r\n         receivedDateTime,\r\n         shipperName,\r\n         recieverAddress,\r\n         receiverName,\r\n         dispatchDateTime,\r\n         cost) =  supplyChainStorage.getDistributerData(_batchNo);  \r\n         \r\n         return (description,\r\n         quantity,\r\n         receivedDateTime,\r\n         shipperName,\r\n         recieverAddress,\r\n         receiverName,\r\n         dispatchDateTime,\r\n         cost);\r\n        \r\n    }\r\n    \r\n    /* Update Distributer Data */\r\n    function updateDistributerData(address _batchNo,\r\n                                string _description,\r\n                            uint256 _quantity,\r\n                            uint256 _receivedDateTime,\r\n                            string _shipperName,\r\n                            string _recieverAddress,\r\n                            string _receiverName,\r\n                            uint256 _cost) \r\n                                public isValidPerformer(_batchNo,'DISTRIBUTER') returns(bool) {\r\n                                    \r\n        /* Call Storage Contract */\r\n        bool status = supplyChainStorage.setDistributerData(_batchNo, _description, _quantity, _receivedDateTime, _shipperName,_recieverAddress,_receiverName,_cost);  \r\n        \r\n        emit DoneDistribution(msg.sender, _batchNo);\r\n        return (status);\r\n    }\r\n    \r\n    \r\n    /* Get Pharma Data */\r\n    function getPharmaData(address _batchNo) public view returns (uint256 quantityRecieved,\r\n                                                                                string description,\r\n                                                                                uint256 arrivalDateTime,\r\n                                                                                uint256 cost,\r\n                                                                                string senderAddress) {\r\n        /* Call Storage Contract */\r\n        (quantityRecieved,\r\n         description,\r\n         arrivalDateTime,\r\n         cost,\r\n         senderAddress\r\n         ) =  supplyChainStorage.getPharmaData(_batchNo);  \r\n         \r\n         return (quantityRecieved,\r\n         description,\r\n         arrivalDateTime,\r\n         cost,\r\n         senderAddress);\r\n \r\n    }\r\n    \r\n    /* Update Pharma Info*/\r\n    function updatePharmaData(address _batchNo,\r\n                              uint256 _quantityRecieved,\r\n                            string _description,\r\n                            uint256 _arrivalDateTime,\r\n                            uint256 _cost,\r\n                            string _senderAddress) public isValidPerformer(_batchNo,'PHARMA') returns(bool) {\r\n                                    \r\n        /* Call Storage Contract */\r\n        bool status = supplyChainStorage.setPharmaData(_batchNo, \r\n                                                        _quantityRecieved, \r\n                                                        _description, \r\n                                                        _arrivalDateTime, \r\n                                                        _cost,\r\n                                                        _senderAddress\r\n                                                        );  \r\n        \r\n        emit DonePharmaDelivery(msg.sender, _batchNo);\r\n        return (status);\r\n    }\r\n}\r\n",
  "sourcePath": "E:\\PROJECT\\Blockchain Vaccine supply chain\\contracts\\VaccineSupplyChain.sol",
  "compiler": {
    "name": "solc",
    "version": "0.4.23+commit.124ca40d.Emscripten.clang"
  },
  "schemaVersion": "2.0.0",
  "updatedAt": "2021-07-07T14:51:05.823Z"
}